{
	"contracts/kipuBank.sol": {
		"KipuBank": {
			"abi": [
				{
					"inputs": [
						{
							"internalType": "uint256",
							"name": "_withdrawalThreshold",
							"type": "uint256"
						},
						{
							"internalType": "uint256",
							"name": "_bankCap",
							"type": "uint256"
						}
					],
					"stateMutability": "nonpayable",
					"type": "constructor"
				},
				{
					"inputs": [],
					"name": "ExceedsBankCap",
					"type": "error"
				},
				{
					"inputs": [],
					"name": "ExceedsWithdrawalThreshold",
					"type": "error"
				},
				{
					"inputs": [],
					"name": "InsufficientBalance",
					"type": "error"
				},
				{
					"inputs": [],
					"name": "Unauthorized",
					"type": "error"
				},
				{
					"inputs": [],
					"name": "ZeroAmount",
					"type": "error"
				},
				{
					"anonymous": false,
					"inputs": [
						{
							"indexed": true,
							"internalType": "address",
							"name": "user",
							"type": "address"
						},
						{
							"indexed": false,
							"internalType": "uint256",
							"name": "amount",
							"type": "uint256"
						},
						{
							"indexed": false,
							"internalType": "uint256",
							"name": "timestamp",
							"type": "uint256"
						}
					],
					"name": "Deposited",
					"type": "event"
				},
				{
					"anonymous": false,
					"inputs": [
						{
							"indexed": true,
							"internalType": "address",
							"name": "user",
							"type": "address"
						},
						{
							"indexed": false,
							"internalType": "uint256",
							"name": "amount",
							"type": "uint256"
						},
						{
							"indexed": false,
							"internalType": "uint256",
							"name": "timestamp",
							"type": "uint256"
						}
					],
					"name": "Withdrawn",
					"type": "event"
				},
				{
					"inputs": [],
					"name": "BANK_CAP",
					"outputs": [
						{
							"internalType": "uint256",
							"name": "",
							"type": "uint256"
						}
					],
					"stateMutability": "view",
					"type": "function"
				},
				{
					"inputs": [],
					"name": "WITHDRAWAL_THRESHOLD",
					"outputs": [
						{
							"internalType": "uint256",
							"name": "",
							"type": "uint256"
						}
					],
					"stateMutability": "view",
					"type": "function"
				},
				{
					"inputs": [
						{
							"internalType": "address",
							"name": "",
							"type": "address"
						}
					],
					"name": "balances",
					"outputs": [
						{
							"internalType": "uint256",
							"name": "",
							"type": "uint256"
						}
					],
					"stateMutability": "view",
					"type": "function"
				},
				{
					"inputs": [],
					"name": "deposit",
					"outputs": [],
					"stateMutability": "payable",
					"type": "function"
				},
				{
					"inputs": [],
					"name": "depositCount",
					"outputs": [
						{
							"internalType": "uint256",
							"name": "",
							"type": "uint256"
						}
					],
					"stateMutability": "view",
					"type": "function"
				},
				{
					"inputs": [
						{
							"internalType": "address",
							"name": "user",
							"type": "address"
						}
					],
					"name": "getBalance",
					"outputs": [
						{
							"internalType": "uint256",
							"name": "",
							"type": "uint256"
						}
					],
					"stateMutability": "view",
					"type": "function"
				},
				{
					"inputs": [],
					"name": "getBankStats",
					"outputs": [
						{
							"internalType": "uint256",
							"name": "",
							"type": "uint256"
						},
						{
							"internalType": "uint256",
							"name": "",
							"type": "uint256"
						},
						{
							"internalType": "uint256",
							"name": "",
							"type": "uint256"
						}
					],
					"stateMutability": "view",
					"type": "function"
				},
				{
					"inputs": [
						{
							"internalType": "uint256",
							"name": "amount",
							"type": "uint256"
						}
					],
					"name": "isWithinWithdrawalLimit",
					"outputs": [
						{
							"internalType": "bool",
							"name": "",
							"type": "bool"
						}
					],
					"stateMutability": "view",
					"type": "function"
				},
				{
					"inputs": [],
					"name": "totalBalance",
					"outputs": [
						{
							"internalType": "uint256",
							"name": "",
							"type": "uint256"
						}
					],
					"stateMutability": "view",
					"type": "function"
				},
				{
					"inputs": [
						{
							"internalType": "uint256",
							"name": "amount",
							"type": "uint256"
						}
					],
					"name": "withdraw",
					"outputs": [],
					"stateMutability": "nonpayable",
					"type": "function"
				},
				{
					"inputs": [],
					"name": "withdrawalCount",
					"outputs": [
						{
							"internalType": "uint256",
							"name": "",
							"type": "uint256"
						}
					],
					"stateMutability": "view",
					"type": "function"
				}
			],
			"devdoc": {
				"author": "Your Name",
				"kind": "dev",
				"methods": {
					"constructor": {
						"params": {
							"_bankCap": "Maximum total deposits limit",
							"_withdrawalThreshold": "Maximum withdrawal limit per transaction"
						}
					},
					"deposit()": {
						"details": "Verifies that bank cap is not exceeded"
					},
					"getBalance(address)": {
						"params": {
							"user": "User address"
						},
						"returns": {
							"_0": "User's balance"
						}
					},
					"getBankStats()": {
						"returns": {
							"_0": "totalDeposits, totalWithdrawals, currentBalance"
						}
					},
					"isWithinWithdrawalLimit(uint256)": {
						"params": {
							"amount": "Amount to verify"
						},
						"returns": {
							"_0": "true if within the limit"
						}
					},
					"withdraw(uint256)": {
						"params": {
							"amount": "Amount to withdraw"
						}
					}
				},
				"title": "KipuBank - Banking contract with personal vaults",
				"version": 1
			},
			"evm": {
				"assembly": "    /* \"contracts/kipuBank.sol\":230:4564  contract KipuBank {... */\n  mstore(0x40, 0xc0)\n    /* \"contracts/kipuBank.sol\":1835:1984  constructor(uint256 _withdrawalThreshold, uint256 _bankCap) {... */\n  callvalue\n  dup1\n  iszero\n  tag_1\n  jumpi\n  revert(0x00, 0x00)\ntag_1:\n  pop\n  mload(0x40)\n  sub(codesize, bytecodeSize)\n  dup1\n  bytecodeSize\n  dup4\n  codecopy\n  dup2\n  dup2\n  add\n  0x40\n  mstore\n  dup2\n  add\n  swap1\n  tag_2\n  swap2\n  swap1\n  tag_3\n  jump\t// in\ntag_2:\n    /* \"contracts/kipuBank.sol\":1928:1948  _withdrawalThreshold */\n  dup2\n    /* \"contracts/kipuBank.sol\":1905:1948  WITHDRAWAL_THRESHOLD = _withdrawalThreshold */\n  0x80\n  dup2\n  dup2\n  mstore\n  pop\n  pop\n    /* \"contracts/kipuBank.sol\":1969:1977  _bankCap */\n  dup1\n    /* \"contracts/kipuBank.sol\":1958:1977  BANK_CAP = _bankCap */\n  0xa0\n  dup2\n  dup2\n  mstore\n  pop\n  pop\n    /* \"contracts/kipuBank.sol\":1835:1984  constructor(uint256 _withdrawalThreshold, uint256 _bankCap) {... */\n  pop\n  pop\n    /* \"contracts/kipuBank.sol\":230:4564  contract KipuBank {... */\n  jump(tag_6)\n    /* \"#utility.yul\":88:205   */\ntag_8:\n    /* \"#utility.yul\":197:198   */\n  0x00\n    /* \"#utility.yul\":194:195   */\n  0x00\n    /* \"#utility.yul\":187:199   */\n  revert\n    /* \"#utility.yul\":334:411   */\ntag_10:\n    /* \"#utility.yul\":371:378   */\n  0x00\n    /* \"#utility.yul\":400:405   */\n  dup2\n    /* \"#utility.yul\":389:405   */\n  swap1\n  pop\n    /* \"#utility.yul\":334:411   */\n  swap2\n  swap1\n  pop\n  jump\t// out\n    /* \"#utility.yul\":417:539   */\ntag_11:\n    /* \"#utility.yul\":490:514   */\n  tag_19\n    /* \"#utility.yul\":508:513   */\n  dup2\n    /* \"#utility.yul\":490:514   */\n  tag_10\n  jump\t// in\ntag_19:\n    /* \"#utility.yul\":483:488   */\n  dup2\n    /* \"#utility.yul\":480:515   */\n  eq\n    /* \"#utility.yul\":470:533   */\n  tag_20\n  jumpi\n    /* \"#utility.yul\":529:530   */\n  0x00\n    /* \"#utility.yul\":526:527   */\n  0x00\n    /* \"#utility.yul\":519:531   */\n  revert\n    /* \"#utility.yul\":470:533   */\ntag_20:\n    /* \"#utility.yul\":417:539   */\n  pop\n  jump\t// out\n    /* \"#utility.yul\":545:688   */\ntag_12:\n    /* \"#utility.yul\":602:607   */\n  0x00\n    /* \"#utility.yul\":633:639   */\n  dup2\n    /* \"#utility.yul\":627:640   */\n  mload\n    /* \"#utility.yul\":618:640   */\n  swap1\n  pop\n    /* \"#utility.yul\":649:682   */\n  tag_22\n    /* \"#utility.yul\":676:681   */\n  dup2\n    /* \"#utility.yul\":649:682   */\n  tag_11\n  jump\t// in\ntag_22:\n    /* \"#utility.yul\":545:688   */\n  swap3\n  swap2\n  pop\n  pop\n  jump\t// out\n    /* \"#utility.yul\":694:1201   */\ntag_3:\n    /* \"#utility.yul\":773:779   */\n  0x00\n    /* \"#utility.yul\":781:787   */\n  0x00\n    /* \"#utility.yul\":830:832   */\n  0x40\n    /* \"#utility.yul\":818:827   */\n  dup4\n    /* \"#utility.yul\":809:816   */\n  dup6\n    /* \"#utility.yul\":805:828   */\n  sub\n    /* \"#utility.yul\":801:833   */\n  slt\n    /* \"#utility.yul\":798:917   */\n  iszero\n  tag_24\n  jumpi\n    /* \"#utility.yul\":836:915   */\n  tag_25\n  tag_8\n  jump\t// in\ntag_25:\n    /* \"#utility.yul\":798:917   */\ntag_24:\n    /* \"#utility.yul\":956:957   */\n  0x00\n    /* \"#utility.yul\":981:1045   */\n  tag_26\n    /* \"#utility.yul\":1037:1044   */\n  dup6\n    /* \"#utility.yul\":1028:1034   */\n  dup3\n    /* \"#utility.yul\":1017:1026   */\n  dup7\n    /* \"#utility.yul\":1013:1035   */\n  add\n    /* \"#utility.yul\":981:1045   */\n  tag_12\n  jump\t// in\ntag_26:\n    /* \"#utility.yul\":971:1045   */\n  swap3\n  pop\n    /* \"#utility.yul\":927:1055   */\n  pop\n    /* \"#utility.yul\":1094:1096   */\n  0x20\n    /* \"#utility.yul\":1120:1184   */\n  tag_27\n    /* \"#utility.yul\":1176:1183   */\n  dup6\n    /* \"#utility.yul\":1167:1173   */\n  dup3\n    /* \"#utility.yul\":1156:1165   */\n  dup7\n    /* \"#utility.yul\":1152:1174   */\n  add\n    /* \"#utility.yul\":1120:1184   */\n  tag_12\n  jump\t// in\ntag_27:\n    /* \"#utility.yul\":1110:1184   */\n  swap2\n  pop\n    /* \"#utility.yul\":1065:1194   */\n  pop\n    /* \"#utility.yul\":694:1201   */\n  swap3\n  pop\n  swap3\n  swap1\n  pop\n  jump\t// out\n    /* \"contracts/kipuBank.sol\":230:4564  contract KipuBank {... */\ntag_6:\n  mload(0x80)\n  mload(0xa0)\n  codecopy(0x00, dataOffset(sub_0), dataSize(sub_0))\n  0x00\n  assignImmutable(\"0x8fef2229291b68be841adf029e58b87f39ba144b2d3b0af1760243d0a9bc6a1c\")\n  0x00\n  assignImmutable(\"0x1d3be50b2bb17407dd170f1d5da128d1def30c6b1598d6a629e79b4775265526\")\n  return(0x00, dataSize(sub_0))\nstop\n\nsub_0: assembly {\n        /* \"contracts/kipuBank.sol\":230:4564  contract KipuBank {... */\n      mstore(0x40, 0x80)\n      jumpi(tag_1, lt(calldatasize, 0x04))\n      shr(0xe0, calldataload(0x00))\n      dup1\n      0x71706cbe\n      gt\n      tag_13\n      jumpi\n      dup1\n      0x71706cbe\n      eq\n      tag_7\n      jumpi\n      dup1\n      0xad7a672f\n      eq\n      tag_8\n      jumpi\n      dup1\n      0xc6e8e38c\n      eq\n      tag_9\n      jumpi\n      dup1\n      0xd0e30db0\n      eq\n      tag_10\n      jumpi\n      dup1\n      0xe28879ee\n      eq\n      tag_11\n      jumpi\n      dup1\n      0xf8b2cb4f\n      eq\n      tag_12\n      jumpi\n      jump(tag_1)\n    tag_13:\n      dup1\n      0x0dbad953\n      eq\n      tag_2\n      jumpi\n      dup1\n      0x27e235e3\n      eq\n      tag_3\n      jumpi\n      dup1\n      0x2dfdf0b5\n      eq\n      tag_4\n      jumpi\n      dup1\n      0x2e1a7d4d\n      eq\n      tag_5\n      jumpi\n      dup1\n      0x4e8ecafb\n      eq\n      tag_6\n      jumpi\n    tag_1:\n      revert(0x00, 0x00)\n        /* \"contracts/kipuBank.sol\":665:698  uint256 public immutable BANK_CAP */\n    tag_2:\n      callvalue\n      dup1\n      iszero\n      tag_14\n      jumpi\n      revert(0x00, 0x00)\n    tag_14:\n      pop\n      tag_15\n      tag_16\n      jump\t// in\n    tag_15:\n      mload(0x40)\n      tag_17\n      swap2\n      swap1\n      tag_18\n      jump\t// in\n    tag_17:\n      mload(0x40)\n      dup1\n      swap2\n      sub\n      swap1\n      return\n        /* \"contracts/kipuBank.sol\":1061:1104  mapping(address => uint256) public balances */\n    tag_3:\n      callvalue\n      dup1\n      iszero\n      tag_19\n      jumpi\n      revert(0x00, 0x00)\n    tag_19:\n      pop\n      tag_20\n      0x04\n      dup1\n      calldatasize\n      sub\n      dup2\n      add\n      swap1\n      tag_21\n      swap2\n      swap1\n      tag_22\n      jump\t// in\n    tag_21:\n      tag_23\n      jump\t// in\n    tag_20:\n      mload(0x40)\n      tag_24\n      swap2\n      swap1\n      tag_18\n      jump\t// in\n    tag_24:\n      mload(0x40)\n      dup1\n      swap2\n      sub\n      swap1\n      return\n        /* \"contracts/kipuBank.sol\":867:894  uint256 public depositCount */\n    tag_4:\n      callvalue\n      dup1\n      iszero\n      tag_25\n      jumpi\n      revert(0x00, 0x00)\n    tag_25:\n      pop\n      tag_26\n      tag_27\n      jump\t// in\n    tag_26:\n      mload(0x40)\n      tag_28\n      swap2\n      swap1\n      tag_18\n      jump\t// in\n    tag_28:\n      mload(0x40)\n      dup1\n      swap2\n      sub\n      swap1\n      return\n        /* \"contracts/kipuBank.sol\":2768:3405  function withdraw(uint256 amount) external nonZeroAmount(amount) {... */\n    tag_5:\n      callvalue\n      dup1\n      iszero\n      tag_29\n      jumpi\n      revert(0x00, 0x00)\n    tag_29:\n      pop\n      tag_30\n      0x04\n      dup1\n      calldatasize\n      sub\n      dup2\n      add\n      swap1\n      tag_31\n      swap2\n      swap1\n      tag_32\n      jump\t// in\n    tag_31:\n      tag_33\n      jump\t// in\n    tag_30:\n      stop\n        /* \"contracts/kipuBank.sol\":4430:4562  function isWithinWithdrawalLimit(uint256 amount) external view returns (bool) {... */\n    tag_6:\n      callvalue\n      dup1\n      iszero\n      tag_34\n      jumpi\n      revert(0x00, 0x00)\n    tag_34:\n      pop\n      tag_35\n      0x04\n      dup1\n      calldatasize\n      sub\n      dup2\n      add\n      swap1\n      tag_36\n      swap2\n      swap1\n      tag_32\n      jump\t// in\n    tag_36:\n      tag_37\n      jump\t// in\n    tag_35:\n      mload(0x40)\n      tag_38\n      swap2\n      swap1\n      tag_39\n      jump\t// in\n    tag_38:\n      mload(0x40)\n      dup1\n      swap2\n      sub\n      swap1\n      return\n        /* \"contracts/kipuBank.sol\":940:970  uint256 public withdrawalCount */\n    tag_7:\n      callvalue\n      dup1\n      iszero\n      tag_40\n      jumpi\n      revert(0x00, 0x00)\n    tag_40:\n      pop\n      tag_41\n      tag_42\n      jump\t// in\n    tag_41:\n      mload(0x40)\n      tag_43\n      swap2\n      swap1\n      tag_18\n      jump\t// in\n    tag_43:\n      mload(0x40)\n      dup1\n      swap2\n      sub\n      swap1\n      return\n        /* \"contracts/kipuBank.sol\":797:824  uint256 public totalBalance */\n    tag_8:\n      callvalue\n      dup1\n      iszero\n      tag_44\n      jumpi\n      revert(0x00, 0x00)\n    tag_44:\n      pop\n      tag_45\n      tag_46\n      jump\t// in\n    tag_45:\n      mload(0x40)\n      tag_47\n      swap2\n      swap1\n      tag_18\n      jump\t// in\n    tag_47:\n      mload(0x40)\n      dup1\n      swap2\n      sub\n      swap1\n      return\n        /* \"contracts/kipuBank.sol\":4136:4279  function getBankStats() external view returns (uint256, uint256, uint256) {... */\n    tag_9:\n      callvalue\n      dup1\n      iszero\n      tag_48\n      jumpi\n      revert(0x00, 0x00)\n    tag_48:\n      pop\n      tag_49\n      tag_50\n      jump\t// in\n    tag_49:\n      mload(0x40)\n      tag_51\n      swap4\n      swap3\n      swap2\n      swap1\n      tag_52\n      jump\t// in\n    tag_51:\n      mload(0x40)\n      dup1\n      swap2\n      sub\n      swap1\n      return\n        /* \"contracts/kipuBank.sol\":2176:2653  function deposit() external payable nonZeroAmount(msg.value) {... */\n    tag_10:\n      tag_53\n      tag_54\n      jump\t// in\n    tag_53:\n      stop\n        /* \"contracts/kipuBank.sol\":558:603  uint256 public immutable WITHDRAWAL_THRESHOLD */\n    tag_11:\n      callvalue\n      dup1\n      iszero\n      tag_55\n      jumpi\n      revert(0x00, 0x00)\n    tag_55:\n      pop\n      tag_56\n      tag_57\n      jump\t// in\n    tag_56:\n      mload(0x40)\n      tag_58\n      swap2\n      swap1\n      tag_18\n      jump\t// in\n    tag_58:\n      mload(0x40)\n      dup1\n      swap2\n      sub\n      swap1\n      return\n        /* \"contracts/kipuBank.sol\":3921:4025  function getBalance(address user) external view returns (uint256) {... */\n    tag_12:\n      callvalue\n      dup1\n      iszero\n      tag_59\n      jumpi\n      revert(0x00, 0x00)\n    tag_59:\n      pop\n      tag_60\n      0x04\n      dup1\n      calldatasize\n      sub\n      dup2\n      add\n      swap1\n      tag_61\n      swap2\n      swap1\n      tag_22\n      jump\t// in\n    tag_61:\n      tag_62\n      jump\t// in\n    tag_60:\n      mload(0x40)\n      tag_63\n      swap2\n      swap1\n      tag_18\n      jump\t// in\n    tag_63:\n      mload(0x40)\n      dup1\n      swap2\n      sub\n      swap1\n      return\n        /* \"contracts/kipuBank.sol\":665:698  uint256 public immutable BANK_CAP */\n    tag_16:\n      immutable(\"0x8fef2229291b68be841adf029e58b87f39ba144b2d3b0af1760243d0a9bc6a1c\")\n      dup2\n      jump\t// out\n        /* \"contracts/kipuBank.sol\":1061:1104  mapping(address => uint256) public balances */\n    tag_23:\n      mstore(0x20, 0x03)\n      dup1\n      0x00\n      mstore\n      keccak256(0x00, 0x40)\n      0x00\n      swap2\n      pop\n      swap1\n      pop\n      sload\n      dup2\n      jump\t// out\n        /* \"contracts/kipuBank.sol\":867:894  uint256 public depositCount */\n    tag_27:\n      sload(0x01)\n      dup2\n      jump\t// out\n        /* \"contracts/kipuBank.sol\":2768:3405  function withdraw(uint256 amount) external nonZeroAmount(amount) {... */\n    tag_33:\n        /* \"contracts/kipuBank.sol\":2825:2831  amount */\n      dup1\n        /* \"contracts/kipuBank.sol\":1571:1572  0 */\n      0x00\n        /* \"contracts/kipuBank.sol\":1561:1567  amount */\n      dup2\n        /* \"contracts/kipuBank.sol\":1561:1572  amount == 0 */\n      sub\n        /* \"contracts/kipuBank.sol\":1557:1593  if (amount == 0) revert ZeroAmount() */\n      tag_65\n      jumpi\n        /* \"contracts/kipuBank.sol\":1581:1593  ZeroAmount() */\n      mload(0x40)\n      0x1f2a200500000000000000000000000000000000000000000000000000000000\n      dup2\n      mstore\n      0x04\n      add\n      mload(0x40)\n      dup1\n      swap2\n      sub\n      swap1\n      revert\n        /* \"contracts/kipuBank.sol\":1557:1593  if (amount == 0) revert ZeroAmount() */\n    tag_65:\n        /* \"contracts/kipuBank.sol\":2897:2917  WITHDRAWAL_THRESHOLD */\n      immutable(\"0x1d3be50b2bb17407dd170f1d5da128d1def30c6b1598d6a629e79b4775265526\")\n        /* \"contracts/kipuBank.sol\":2888:2894  amount */\n      dup3\n        /* \"contracts/kipuBank.sol\":2888:2917  amount > WITHDRAWAL_THRESHOLD */\n      gt\n        /* \"contracts/kipuBank.sol\":2884:2979  if (amount > WITHDRAWAL_THRESHOLD) {... */\n      iszero\n      tag_67\n      jumpi\n        /* \"contracts/kipuBank.sol\":2940:2968  ExceedsWithdrawalThreshold() */\n      mload(0x40)\n      0x55d574cb00000000000000000000000000000000000000000000000000000000\n      dup2\n      mstore\n      0x04\n      add\n      mload(0x40)\n      dup1\n      swap2\n      sub\n      swap1\n      revert\n        /* \"contracts/kipuBank.sol\":2884:2979  if (amount > WITHDRAWAL_THRESHOLD) {... */\n    tag_67:\n        /* \"contracts/kipuBank.sol\":3015:3021  amount */\n      dup2\n        /* \"contracts/kipuBank.sol\":2992:3000  balances */\n      0x03\n        /* \"contracts/kipuBank.sol\":2992:3012  balances[msg.sender] */\n      0x00\n        /* \"contracts/kipuBank.sol\":3001:3011  msg.sender */\n      caller\n        /* \"contracts/kipuBank.sol\":2992:3012  balances[msg.sender] */\n      0xffffffffffffffffffffffffffffffffffffffff\n      and\n      0xffffffffffffffffffffffffffffffffffffffff\n      and\n      dup2\n      mstore\n      0x20\n      add\n      swap1\n      dup2\n      mstore\n      0x20\n      add\n      0x00\n      keccak256\n      sload\n        /* \"contracts/kipuBank.sol\":2992:3021  balances[msg.sender] < amount */\n      lt\n        /* \"contracts/kipuBank.sol\":2988:3076  if (balances[msg.sender] < amount) {... */\n      iszero\n      tag_68\n      jumpi\n        /* \"contracts/kipuBank.sol\":3044:3065  InsufficientBalance() */\n      mload(0x40)\n      0xf4d678b800000000000000000000000000000000000000000000000000000000\n      dup2\n      mstore\n      0x04\n      add\n      mload(0x40)\n      dup1\n      swap2\n      sub\n      swap1\n      revert\n        /* \"contracts/kipuBank.sol\":2988:3076  if (balances[msg.sender] < amount) {... */\n    tag_68:\n        /* \"contracts/kipuBank.sol\":3157:3163  amount */\n      dup2\n        /* \"contracts/kipuBank.sol\":3133:3141  balances */\n      0x03\n        /* \"contracts/kipuBank.sol\":3133:3153  balances[msg.sender] */\n      0x00\n        /* \"contracts/kipuBank.sol\":3142:3152  msg.sender */\n      caller\n        /* \"contracts/kipuBank.sol\":3133:3153  balances[msg.sender] */\n      0xffffffffffffffffffffffffffffffffffffffff\n      and\n      0xffffffffffffffffffffffffffffffffffffffff\n      and\n      dup2\n      mstore\n      0x20\n      add\n      swap1\n      dup2\n      mstore\n      0x20\n      add\n      0x00\n      keccak256\n      0x00\n        /* \"contracts/kipuBank.sol\":3133:3163  balances[msg.sender] -= amount */\n      dup3\n      dup3\n      sload\n      tag_69\n      swap2\n      swap1\n      tag_70\n      jump\t// in\n    tag_69:\n      swap3\n      pop\n      pop\n      dup2\n      swap1\n      sstore\n      pop\n        /* \"contracts/kipuBank.sol\":3189:3195  amount */\n      dup2\n        /* \"contracts/kipuBank.sol\":3173:3185  totalBalance */\n      0x00\n      0x00\n        /* \"contracts/kipuBank.sol\":3173:3195  totalBalance -= amount */\n      dup3\n      dup3\n      sload\n      tag_71\n      swap2\n      swap1\n      tag_70\n      jump\t// in\n    tag_71:\n      swap3\n      pop\n      pop\n      dup2\n      swap1\n      sstore\n      pop\n        /* \"contracts/kipuBank.sol\":3205:3220  withdrawalCount */\n      0x02\n      0x00\n        /* \"contracts/kipuBank.sol\":3205:3222  withdrawalCount++ */\n      dup2\n      sload\n      dup1\n      swap3\n      swap2\n      swap1\n      tag_72\n      swap1\n      tag_73\n      jump\t// in\n    tag_72:\n      swap2\n      swap1\n      pop\n      sstore\n      pop\n        /* \"contracts/kipuBank.sol\":3295:3328  _safeTransfer(msg.sender, amount) */\n      tag_74\n        /* \"contracts/kipuBank.sol\":3309:3319  msg.sender */\n      caller\n        /* \"contracts/kipuBank.sol\":3321:3327  amount */\n      dup4\n        /* \"contracts/kipuBank.sol\":3295:3308  _safeTransfer */\n      tag_75\n        /* \"contracts/kipuBank.sol\":3295:3328  _safeTransfer(msg.sender, amount) */\n      jump\t// in\n    tag_74:\n        /* \"contracts/kipuBank.sol\":3362:3372  msg.sender */\n      caller\n        /* \"contracts/kipuBank.sol\":3352:3398  Withdrawn(msg.sender, amount, block.timestamp) */\n      0xffffffffffffffffffffffffffffffffffffffff\n      and\n      0x92ccf450a286a957af52509bc1c9939d1a6a481783e142e41e2499f0bb66ebc6\n        /* \"contracts/kipuBank.sol\":3374:3380  amount */\n      dup4\n        /* \"contracts/kipuBank.sol\":3382:3397  block.timestamp */\n      timestamp\n        /* \"contracts/kipuBank.sol\":3352:3398  Withdrawn(msg.sender, amount, block.timestamp) */\n      mload(0x40)\n      tag_76\n      swap3\n      swap2\n      swap1\n      tag_77\n      jump\t// in\n    tag_76:\n      mload(0x40)\n      dup1\n      swap2\n      sub\n      swap1\n      log2\n        /* \"contracts/kipuBank.sol\":2768:3405  function withdraw(uint256 amount) external nonZeroAmount(amount) {... */\n      pop\n      pop\n      jump\t// out\n        /* \"contracts/kipuBank.sol\":4430:4562  function isWithinWithdrawalLimit(uint256 amount) external view returns (bool) {... */\n    tag_37:\n        /* \"contracts/kipuBank.sol\":4502:4506  bool */\n      0x00\n        /* \"contracts/kipuBank.sol\":4535:4555  WITHDRAWAL_THRESHOLD */\n      immutable(\"0x1d3be50b2bb17407dd170f1d5da128d1def30c6b1598d6a629e79b4775265526\")\n        /* \"contracts/kipuBank.sol\":4525:4531  amount */\n      dup3\n        /* \"contracts/kipuBank.sol\":4525:4555  amount <= WITHDRAWAL_THRESHOLD */\n      gt\n      iszero\n        /* \"contracts/kipuBank.sol\":4518:4555  return amount <= WITHDRAWAL_THRESHOLD */\n      swap1\n      pop\n        /* \"contracts/kipuBank.sol\":4430:4562  function isWithinWithdrawalLimit(uint256 amount) external view returns (bool) {... */\n      swap2\n      swap1\n      pop\n      jump\t// out\n        /* \"contracts/kipuBank.sol\":940:970  uint256 public withdrawalCount */\n    tag_42:\n      sload(0x02)\n      dup2\n      jump\t// out\n        /* \"contracts/kipuBank.sol\":797:824  uint256 public totalBalance */\n    tag_46:\n      sload(0x00)\n      dup2\n      jump\t// out\n        /* \"contracts/kipuBank.sol\":4136:4279  function getBankStats() external view returns (uint256, uint256, uint256) {... */\n    tag_50:\n        /* \"contracts/kipuBank.sol\":4183:4190  uint256 */\n      0x00\n        /* \"contracts/kipuBank.sol\":4192:4199  uint256 */\n      0x00\n        /* \"contracts/kipuBank.sol\":4201:4208  uint256 */\n      0x00\n        /* \"contracts/kipuBank.sol\":4228:4240  depositCount */\n      sload(0x01)\n        /* \"contracts/kipuBank.sol\":4242:4257  withdrawalCount */\n      sload(0x02)\n        /* \"contracts/kipuBank.sol\":4259:4271  totalBalance */\n      sload(0x00)\n        /* \"contracts/kipuBank.sol\":4220:4272  return (depositCount, withdrawalCount, totalBalance) */\n      swap3\n      pop\n      swap3\n      pop\n      swap3\n      pop\n        /* \"contracts/kipuBank.sol\":4136:4279  function getBankStats() external view returns (uint256, uint256, uint256) {... */\n      swap1\n      swap2\n      swap3\n      jump\t// out\n        /* \"contracts/kipuBank.sol\":2176:2653  function deposit() external payable nonZeroAmount(msg.value) {... */\n    tag_54:\n        /* \"contracts/kipuBank.sol\":2226:2235  msg.value */\n      callvalue\n        /* \"contracts/kipuBank.sol\":1571:1572  0 */\n      0x00\n        /* \"contracts/kipuBank.sol\":1561:1567  amount */\n      dup2\n        /* \"contracts/kipuBank.sol\":1561:1572  amount == 0 */\n      sub\n        /* \"contracts/kipuBank.sol\":1557:1593  if (amount == 0) revert ZeroAmount() */\n      tag_81\n      jumpi\n        /* \"contracts/kipuBank.sol\":1581:1593  ZeroAmount() */\n      mload(0x40)\n      0x1f2a200500000000000000000000000000000000000000000000000000000000\n      dup2\n      mstore\n      0x04\n      add\n      mload(0x40)\n      dup1\n      swap2\n      sub\n      swap1\n      revert\n        /* \"contracts/kipuBank.sol\":1557:1593  if (amount == 0) revert ZeroAmount() */\n    tag_81:\n        /* \"contracts/kipuBank.sol\":2314:2322  BANK_CAP */\n      immutable(\"0x8fef2229291b68be841adf029e58b87f39ba144b2d3b0af1760243d0a9bc6a1c\")\n        /* \"contracts/kipuBank.sol\":2302:2311  msg.value */\n      callvalue\n        /* \"contracts/kipuBank.sol\":2287:2299  totalBalance */\n      sload(0x00)\n        /* \"contracts/kipuBank.sol\":2287:2311  totalBalance + msg.value */\n      tag_83\n      swap2\n      swap1\n      tag_84\n      jump\t// in\n    tag_83:\n        /* \"contracts/kipuBank.sol\":2287:2322  totalBalance + msg.value > BANK_CAP */\n      gt\n        /* \"contracts/kipuBank.sol\":2283:2372  if (totalBalance + msg.value > BANK_CAP) {... */\n      iszero\n      tag_85\n      jumpi\n        /* \"contracts/kipuBank.sol\":2345:2361  ExceedsBankCap() */\n      mload(0x40)\n      0xb5d6cf7a00000000000000000000000000000000000000000000000000000000\n      dup2\n      mstore\n      0x04\n      add\n      mload(0x40)\n      dup1\n      swap2\n      sub\n      swap1\n      revert\n        /* \"contracts/kipuBank.sol\":2283:2372  if (totalBalance + msg.value > BANK_CAP) {... */\n    tag_85:\n        /* \"contracts/kipuBank.sol\":2453:2462  msg.value */\n      callvalue\n        /* \"contracts/kipuBank.sol\":2429:2437  balances */\n      0x03\n        /* \"contracts/kipuBank.sol\":2429:2449  balances[msg.sender] */\n      0x00\n        /* \"contracts/kipuBank.sol\":2438:2448  msg.sender */\n      caller\n        /* \"contracts/kipuBank.sol\":2429:2449  balances[msg.sender] */\n      0xffffffffffffffffffffffffffffffffffffffff\n      and\n      0xffffffffffffffffffffffffffffffffffffffff\n      and\n      dup2\n      mstore\n      0x20\n      add\n      swap1\n      dup2\n      mstore\n      0x20\n      add\n      0x00\n      keccak256\n      0x00\n        /* \"contracts/kipuBank.sol\":2429:2462  balances[msg.sender] += msg.value */\n      dup3\n      dup3\n      sload\n      tag_86\n      swap2\n      swap1\n      tag_84\n      jump\t// in\n    tag_86:\n      swap3\n      pop\n      pop\n      dup2\n      swap1\n      sstore\n      pop\n        /* \"contracts/kipuBank.sol\":2488:2497  msg.value */\n      callvalue\n        /* \"contracts/kipuBank.sol\":2472:2484  totalBalance */\n      0x00\n      0x00\n        /* \"contracts/kipuBank.sol\":2472:2497  totalBalance += msg.value */\n      dup3\n      dup3\n      sload\n      tag_87\n      swap2\n      swap1\n      tag_84\n      jump\t// in\n    tag_87:\n      swap3\n      pop\n      pop\n      dup2\n      swap1\n      sstore\n      pop\n        /* \"contracts/kipuBank.sol\":2507:2519  depositCount */\n      0x01\n      0x00\n        /* \"contracts/kipuBank.sol\":2507:2521  depositCount++ */\n      dup2\n      sload\n      dup1\n      swap3\n      swap2\n      swap1\n      tag_88\n      swap1\n      tag_73\n      jump\t// in\n    tag_88:\n      swap2\n      swap1\n      pop\n      sstore\n      pop\n        /* \"contracts/kipuBank.sol\":2607:2617  msg.sender */\n      caller\n        /* \"contracts/kipuBank.sol\":2597:2646  Deposited(msg.sender, msg.value, block.timestamp) */\n      0xffffffffffffffffffffffffffffffffffffffff\n      and\n      0x73a19dd210f1a7f902193214c0ee91dd35ee5b4d920cba8d519eca65a7b488ca\n        /* \"contracts/kipuBank.sol\":2619:2628  msg.value */\n      callvalue\n        /* \"contracts/kipuBank.sol\":2630:2645  block.timestamp */\n      timestamp\n        /* \"contracts/kipuBank.sol\":2597:2646  Deposited(msg.sender, msg.value, block.timestamp) */\n      mload(0x40)\n      tag_89\n      swap3\n      swap2\n      swap1\n      tag_77\n      jump\t// in\n    tag_89:\n      mload(0x40)\n      dup1\n      swap2\n      sub\n      swap1\n      log2\n        /* \"contracts/kipuBank.sol\":2176:2653  function deposit() external payable nonZeroAmount(msg.value) {... */\n      pop\n      jump\t// out\n        /* \"contracts/kipuBank.sol\":558:603  uint256 public immutable WITHDRAWAL_THRESHOLD */\n    tag_57:\n      immutable(\"0x1d3be50b2bb17407dd170f1d5da128d1def30c6b1598d6a629e79b4775265526\")\n      dup2\n      jump\t// out\n        /* \"contracts/kipuBank.sol\":3921:4025  function getBalance(address user) external view returns (uint256) {... */\n    tag_62:\n        /* \"contracts/kipuBank.sol\":3978:3985  uint256 */\n      0x00\n        /* \"contracts/kipuBank.sol\":4004:4012  balances */\n      0x03\n        /* \"contracts/kipuBank.sol\":4004:4018  balances[user] */\n      0x00\n        /* \"contracts/kipuBank.sol\":4013:4017  user */\n      dup4\n        /* \"contracts/kipuBank.sol\":4004:4018  balances[user] */\n      0xffffffffffffffffffffffffffffffffffffffff\n      and\n      0xffffffffffffffffffffffffffffffffffffffff\n      and\n      dup2\n      mstore\n      0x20\n      add\n      swap1\n      dup2\n      mstore\n      0x20\n      add\n      0x00\n      keccak256\n      sload\n        /* \"contracts/kipuBank.sol\":3997:4018  return balances[user] */\n      swap1\n      pop\n        /* \"contracts/kipuBank.sol\":3921:4025  function getBalance(address user) external view returns (uint256) {... */\n      swap2\n      swap1\n      pop\n      jump\t// out\n        /* \"contracts/kipuBank.sol\":3590:3756  function _safeTransfer(address to, uint256 amount) private {... */\n    tag_75:\n        /* \"contracts/kipuBank.sol\":3660:3672  bool success */\n      0x00\n        /* \"contracts/kipuBank.sol\":3678:3680  to */\n      dup3\n        /* \"contracts/kipuBank.sol\":3678:3685  to.call */\n      0xffffffffffffffffffffffffffffffffffffffff\n      and\n        /* \"contracts/kipuBank.sol\":3693:3699  amount */\n      dup3\n        /* \"contracts/kipuBank.sol\":3678:3704  to.call{value: amount}(\"\") */\n      mload(0x40)\n      tag_92\n      swap1\n      tag_93\n      jump\t// in\n    tag_92:\n      0x00\n      mload(0x40)\n      dup1\n      dup4\n      sub\n      dup2\n      dup6\n      dup8\n      gas\n      call\n      swap3\n      pop\n      pop\n      pop\n      returndatasize\n      dup1\n      0x00\n      dup2\n      eq\n      tag_96\n      jumpi\n      mload(0x40)\n      swap2\n      pop\n      and(add(returndatasize, 0x3f), not(0x1f))\n      dup3\n      add\n      0x40\n      mstore\n      returndatasize\n      dup3\n      mstore\n      returndatasize\n      0x00\n      0x20\n      dup5\n      add\n      returndatacopy\n      jump(tag_95)\n    tag_96:\n      0x60\n      swap2\n      pop\n    tag_95:\n      pop\n        /* \"contracts/kipuBank.sol\":3659:3704  (bool success, ) = to.call{value: amount}(\"\") */\n      pop\n      swap1\n      pop\n        /* \"contracts/kipuBank.sol\":3722:3729  success */\n      dup1\n        /* \"contracts/kipuBank.sol\":3714:3749  require(success, \"Transfer failed\") */\n      tag_97\n      jumpi\n      mload(0x40)\n      0x08c379a000000000000000000000000000000000000000000000000000000000\n      dup2\n      mstore\n      0x04\n      add\n      tag_98\n      swap1\n      tag_99\n      jump\t// in\n    tag_98:\n      mload(0x40)\n      dup1\n      swap2\n      sub\n      swap1\n      revert\n    tag_97:\n        /* \"contracts/kipuBank.sol\":3649:3756  {... */\n      pop\n        /* \"contracts/kipuBank.sol\":3590:3756  function _safeTransfer(address to, uint256 amount) private {... */\n      pop\n      pop\n      jump\t// out\n        /* \"#utility.yul\":7:84   */\n    tag_100:\n        /* \"#utility.yul\":44:51   */\n      0x00\n        /* \"#utility.yul\":73:78   */\n      dup2\n        /* \"#utility.yul\":62:78   */\n      swap1\n      pop\n        /* \"#utility.yul\":7:84   */\n      swap2\n      swap1\n      pop\n      jump\t// out\n        /* \"#utility.yul\":90:208   */\n    tag_101:\n        /* \"#utility.yul\":177:201   */\n      tag_123\n        /* \"#utility.yul\":195:200   */\n      dup2\n        /* \"#utility.yul\":177:201   */\n      tag_100\n      jump\t// in\n    tag_123:\n        /* \"#utility.yul\":172:175   */\n      dup3\n        /* \"#utility.yul\":165:202   */\n      mstore\n        /* \"#utility.yul\":90:208   */\n      pop\n      pop\n      jump\t// out\n        /* \"#utility.yul\":214:436   */\n    tag_18:\n        /* \"#utility.yul\":307:311   */\n      0x00\n        /* \"#utility.yul\":345:347   */\n      0x20\n        /* \"#utility.yul\":334:343   */\n      dup3\n        /* \"#utility.yul\":330:348   */\n      add\n        /* \"#utility.yul\":322:348   */\n      swap1\n      pop\n        /* \"#utility.yul\":358:429   */\n      tag_125\n        /* \"#utility.yul\":426:427   */\n      0x00\n        /* \"#utility.yul\":415:424   */\n      dup4\n        /* \"#utility.yul\":411:428   */\n      add\n        /* \"#utility.yul\":402:408   */\n      dup5\n        /* \"#utility.yul\":358:429   */\n      tag_101\n      jump\t// in\n    tag_125:\n        /* \"#utility.yul\":214:436   */\n      swap3\n      swap2\n      pop\n      pop\n      jump\t// out\n        /* \"#utility.yul\":523:640   */\n    tag_103:\n        /* \"#utility.yul\":632:633   */\n      0x00\n        /* \"#utility.yul\":629:630   */\n      0x00\n        /* \"#utility.yul\":622:634   */\n      revert\n        /* \"#utility.yul\":769:895   */\n    tag_105:\n        /* \"#utility.yul\":806:813   */\n      0x00\n        /* \"#utility.yul\":846:888   */\n      0xffffffffffffffffffffffffffffffffffffffff\n        /* \"#utility.yul\":839:844   */\n      dup3\n        /* \"#utility.yul\":835:889   */\n      and\n        /* \"#utility.yul\":824:889   */\n      swap1\n      pop\n        /* \"#utility.yul\":769:895   */\n      swap2\n      swap1\n      pop\n      jump\t// out\n        /* \"#utility.yul\":901:997   */\n    tag_106:\n        /* \"#utility.yul\":938:945   */\n      0x00\n        /* \"#utility.yul\":967:991   */\n      tag_131\n        /* \"#utility.yul\":985:990   */\n      dup3\n        /* \"#utility.yul\":967:991   */\n      tag_105\n      jump\t// in\n    tag_131:\n        /* \"#utility.yul\":956:991   */\n      swap1\n      pop\n        /* \"#utility.yul\":901:997   */\n      swap2\n      swap1\n      pop\n      jump\t// out\n        /* \"#utility.yul\":1003:1125   */\n    tag_107:\n        /* \"#utility.yul\":1076:1100   */\n      tag_133\n        /* \"#utility.yul\":1094:1099   */\n      dup2\n        /* \"#utility.yul\":1076:1100   */\n      tag_106\n      jump\t// in\n    tag_133:\n        /* \"#utility.yul\":1069:1074   */\n      dup2\n        /* \"#utility.yul\":1066:1101   */\n      eq\n        /* \"#utility.yul\":1056:1119   */\n      tag_134\n      jumpi\n        /* \"#utility.yul\":1115:1116   */\n      0x00\n        /* \"#utility.yul\":1112:1113   */\n      0x00\n        /* \"#utility.yul\":1105:1117   */\n      revert\n        /* \"#utility.yul\":1056:1119   */\n    tag_134:\n        /* \"#utility.yul\":1003:1125   */\n      pop\n      jump\t// out\n        /* \"#utility.yul\":1131:1270   */\n    tag_108:\n        /* \"#utility.yul\":1177:1182   */\n      0x00\n        /* \"#utility.yul\":1215:1221   */\n      dup2\n        /* \"#utility.yul\":1202:1222   */\n      calldataload\n        /* \"#utility.yul\":1193:1222   */\n      swap1\n      pop\n        /* \"#utility.yul\":1231:1264   */\n      tag_136\n        /* \"#utility.yul\":1258:1263   */\n      dup2\n        /* \"#utility.yul\":1231:1264   */\n      tag_107\n      jump\t// in\n    tag_136:\n        /* \"#utility.yul\":1131:1270   */\n      swap3\n      swap2\n      pop\n      pop\n      jump\t// out\n        /* \"#utility.yul\":1276:1605   */\n    tag_22:\n        /* \"#utility.yul\":1335:1341   */\n      0x00\n        /* \"#utility.yul\":1384:1386   */\n      0x20\n        /* \"#utility.yul\":1372:1381   */\n      dup3\n        /* \"#utility.yul\":1363:1370   */\n      dup5\n        /* \"#utility.yul\":1359:1382   */\n      sub\n        /* \"#utility.yul\":1355:1387   */\n      slt\n        /* \"#utility.yul\":1352:1471   */\n      iszero\n      tag_138\n      jumpi\n        /* \"#utility.yul\":1390:1469   */\n      tag_139\n      tag_103\n      jump\t// in\n    tag_139:\n        /* \"#utility.yul\":1352:1471   */\n    tag_138:\n        /* \"#utility.yul\":1510:1511   */\n      0x00\n        /* \"#utility.yul\":1535:1588   */\n      tag_140\n        /* \"#utility.yul\":1580:1587   */\n      dup5\n        /* \"#utility.yul\":1571:1577   */\n      dup3\n        /* \"#utility.yul\":1560:1569   */\n      dup6\n        /* \"#utility.yul\":1556:1578   */\n      add\n        /* \"#utility.yul\":1535:1588   */\n      tag_108\n      jump\t// in\n    tag_140:\n        /* \"#utility.yul\":1525:1588   */\n      swap2\n      pop\n        /* \"#utility.yul\":1481:1598   */\n      pop\n        /* \"#utility.yul\":1276:1605   */\n      swap3\n      swap2\n      pop\n      pop\n      jump\t// out\n        /* \"#utility.yul\":1611:1733   */\n    tag_109:\n        /* \"#utility.yul\":1684:1708   */\n      tag_142\n        /* \"#utility.yul\":1702:1707   */\n      dup2\n        /* \"#utility.yul\":1684:1708   */\n      tag_100\n      jump\t// in\n    tag_142:\n        /* \"#utility.yul\":1677:1682   */\n      dup2\n        /* \"#utility.yul\":1674:1709   */\n      eq\n        /* \"#utility.yul\":1664:1727   */\n      tag_143\n      jumpi\n        /* \"#utility.yul\":1723:1724   */\n      0x00\n        /* \"#utility.yul\":1720:1721   */\n      0x00\n        /* \"#utility.yul\":1713:1725   */\n      revert\n        /* \"#utility.yul\":1664:1727   */\n    tag_143:\n        /* \"#utility.yul\":1611:1733   */\n      pop\n      jump\t// out\n        /* \"#utility.yul\":1739:1878   */\n    tag_110:\n        /* \"#utility.yul\":1785:1790   */\n      0x00\n        /* \"#utility.yul\":1823:1829   */\n      dup2\n        /* \"#utility.yul\":1810:1830   */\n      calldataload\n        /* \"#utility.yul\":1801:1830   */\n      swap1\n      pop\n        /* \"#utility.yul\":1839:1872   */\n      tag_145\n        /* \"#utility.yul\":1866:1871   */\n      dup2\n        /* \"#utility.yul\":1839:1872   */\n      tag_109\n      jump\t// in\n    tag_145:\n        /* \"#utility.yul\":1739:1878   */\n      swap3\n      swap2\n      pop\n      pop\n      jump\t// out\n        /* \"#utility.yul\":1884:2213   */\n    tag_32:\n        /* \"#utility.yul\":1943:1949   */\n      0x00\n        /* \"#utility.yul\":1992:1994   */\n      0x20\n        /* \"#utility.yul\":1980:1989   */\n      dup3\n        /* \"#utility.yul\":1971:1978   */\n      dup5\n        /* \"#utility.yul\":1967:1990   */\n      sub\n        /* \"#utility.yul\":1963:1995   */\n      slt\n        /* \"#utility.yul\":1960:2079   */\n      iszero\n      tag_147\n      jumpi\n        /* \"#utility.yul\":1998:2077   */\n      tag_148\n      tag_103\n      jump\t// in\n    tag_148:\n        /* \"#utility.yul\":1960:2079   */\n    tag_147:\n        /* \"#utility.yul\":2118:2119   */\n      0x00\n        /* \"#utility.yul\":2143:2196   */\n      tag_149\n        /* \"#utility.yul\":2188:2195   */\n      dup5\n        /* \"#utility.yul\":2179:2185   */\n      dup3\n        /* \"#utility.yul\":2168:2177   */\n      dup6\n        /* \"#utility.yul\":2164:2186   */\n      add\n        /* \"#utility.yul\":2143:2196   */\n      tag_110\n      jump\t// in\n    tag_149:\n        /* \"#utility.yul\":2133:2196   */\n      swap2\n      pop\n        /* \"#utility.yul\":2089:2206   */\n      pop\n        /* \"#utility.yul\":1884:2213   */\n      swap3\n      swap2\n      pop\n      pop\n      jump\t// out\n        /* \"#utility.yul\":2219:2309   */\n    tag_111:\n        /* \"#utility.yul\":2253:2260   */\n      0x00\n        /* \"#utility.yul\":2296:2301   */\n      dup2\n        /* \"#utility.yul\":2289:2302   */\n      iszero\n        /* \"#utility.yul\":2282:2303   */\n      iszero\n        /* \"#utility.yul\":2271:2303   */\n      swap1\n      pop\n        /* \"#utility.yul\":2219:2309   */\n      swap2\n      swap1\n      pop\n      jump\t// out\n        /* \"#utility.yul\":2315:2424   */\n    tag_112:\n        /* \"#utility.yul\":2396:2417   */\n      tag_152\n        /* \"#utility.yul\":2411:2416   */\n      dup2\n        /* \"#utility.yul\":2396:2417   */\n      tag_111\n      jump\t// in\n    tag_152:\n        /* \"#utility.yul\":2391:2394   */\n      dup3\n        /* \"#utility.yul\":2384:2418   */\n      mstore\n        /* \"#utility.yul\":2315:2424   */\n      pop\n      pop\n      jump\t// out\n        /* \"#utility.yul\":2430:2640   */\n    tag_39:\n        /* \"#utility.yul\":2517:2521   */\n      0x00\n        /* \"#utility.yul\":2555:2557   */\n      0x20\n        /* \"#utility.yul\":2544:2553   */\n      dup3\n        /* \"#utility.yul\":2540:2558   */\n      add\n        /* \"#utility.yul\":2532:2558   */\n      swap1\n      pop\n        /* \"#utility.yul\":2568:2633   */\n      tag_154\n        /* \"#utility.yul\":2630:2631   */\n      0x00\n        /* \"#utility.yul\":2619:2628   */\n      dup4\n        /* \"#utility.yul\":2615:2632   */\n      add\n        /* \"#utility.yul\":2606:2612   */\n      dup5\n        /* \"#utility.yul\":2568:2633   */\n      tag_112\n      jump\t// in\n    tag_154:\n        /* \"#utility.yul\":2430:2640   */\n      swap3\n      swap2\n      pop\n      pop\n      jump\t// out\n        /* \"#utility.yul\":2646:3088   */\n    tag_52:\n        /* \"#utility.yul\":2795:2799   */\n      0x00\n        /* \"#utility.yul\":2833:2835   */\n      0x60\n        /* \"#utility.yul\":2822:2831   */\n      dup3\n        /* \"#utility.yul\":2818:2836   */\n      add\n        /* \"#utility.yul\":2810:2836   */\n      swap1\n      pop\n        /* \"#utility.yul\":2846:2917   */\n      tag_156\n        /* \"#utility.yul\":2914:2915   */\n      0x00\n        /* \"#utility.yul\":2903:2912   */\n      dup4\n        /* \"#utility.yul\":2899:2916   */\n      add\n        /* \"#utility.yul\":2890:2896   */\n      dup7\n        /* \"#utility.yul\":2846:2917   */\n      tag_101\n      jump\t// in\n    tag_156:\n        /* \"#utility.yul\":2927:2999   */\n      tag_157\n        /* \"#utility.yul\":2995:2997   */\n      0x20\n        /* \"#utility.yul\":2984:2993   */\n      dup4\n        /* \"#utility.yul\":2980:2998   */\n      add\n        /* \"#utility.yul\":2971:2977   */\n      dup6\n        /* \"#utility.yul\":2927:2999   */\n      tag_101\n      jump\t// in\n    tag_157:\n        /* \"#utility.yul\":3009:3081   */\n      tag_158\n        /* \"#utility.yul\":3077:3079   */\n      0x40\n        /* \"#utility.yul\":3066:3075   */\n      dup4\n        /* \"#utility.yul\":3062:3080   */\n      add\n        /* \"#utility.yul\":3053:3059   */\n      dup5\n        /* \"#utility.yul\":3009:3081   */\n      tag_101\n      jump\t// in\n    tag_158:\n        /* \"#utility.yul\":2646:3088   */\n      swap5\n      swap4\n      pop\n      pop\n      pop\n      pop\n      jump\t// out\n        /* \"#utility.yul\":3094:3274   */\n    tag_113:\n        /* \"#utility.yul\":3142:3219   */\n      0x4e487b7100000000000000000000000000000000000000000000000000000000\n        /* \"#utility.yul\":3139:3140   */\n      0x00\n        /* \"#utility.yul\":3132:3220   */\n      mstore\n        /* \"#utility.yul\":3239:3243   */\n      0x11\n        /* \"#utility.yul\":3236:3237   */\n      0x04\n        /* \"#utility.yul\":3229:3244   */\n      mstore\n        /* \"#utility.yul\":3263:3267   */\n      0x24\n        /* \"#utility.yul\":3260:3261   */\n      0x00\n        /* \"#utility.yul\":3253:3268   */\n      revert\n        /* \"#utility.yul\":3280:3474   */\n    tag_70:\n        /* \"#utility.yul\":3320:3324   */\n      0x00\n        /* \"#utility.yul\":3340:3360   */\n      tag_161\n        /* \"#utility.yul\":3358:3359   */\n      dup3\n        /* \"#utility.yul\":3340:3360   */\n      tag_100\n      jump\t// in\n    tag_161:\n        /* \"#utility.yul\":3335:3360   */\n      swap2\n      pop\n        /* \"#utility.yul\":3374:3394   */\n      tag_162\n        /* \"#utility.yul\":3392:3393   */\n      dup4\n        /* \"#utility.yul\":3374:3394   */\n      tag_100\n      jump\t// in\n    tag_162:\n        /* \"#utility.yul\":3369:3394   */\n      swap3\n      pop\n        /* \"#utility.yul\":3418:3419   */\n      dup3\n        /* \"#utility.yul\":3415:3416   */\n      dup3\n        /* \"#utility.yul\":3411:3420   */\n      sub\n        /* \"#utility.yul\":3403:3420   */\n      swap1\n      pop\n        /* \"#utility.yul\":3442:3443   */\n      dup2\n        /* \"#utility.yul\":3436:3440   */\n      dup2\n        /* \"#utility.yul\":3433:3444   */\n      gt\n        /* \"#utility.yul\":3430:3467   */\n      iszero\n      tag_163\n      jumpi\n        /* \"#utility.yul\":3447:3465   */\n      tag_164\n      tag_113\n      jump\t// in\n    tag_164:\n        /* \"#utility.yul\":3430:3467   */\n    tag_163:\n        /* \"#utility.yul\":3280:3474   */\n      swap3\n      swap2\n      pop\n      pop\n      jump\t// out\n        /* \"#utility.yul\":3480:3713   */\n    tag_73:\n        /* \"#utility.yul\":3519:3522   */\n      0x00\n        /* \"#utility.yul\":3542:3566   */\n      tag_166\n        /* \"#utility.yul\":3560:3565   */\n      dup3\n        /* \"#utility.yul\":3542:3566   */\n      tag_100\n      jump\t// in\n    tag_166:\n        /* \"#utility.yul\":3533:3566   */\n      swap2\n      pop\n        /* \"#utility.yul\":3588:3654   */\n      0xffffffffffffffffffffffffffffffffffffffffffffffffffffffffffffffff\n        /* \"#utility.yul\":3581:3586   */\n      dup3\n        /* \"#utility.yul\":3578:3655   */\n      sub\n        /* \"#utility.yul\":3575:3678   */\n      tag_167\n      jumpi\n        /* \"#utility.yul\":3658:3676   */\n      tag_168\n      tag_113\n      jump\t// in\n    tag_168:\n        /* \"#utility.yul\":3575:3678   */\n    tag_167:\n        /* \"#utility.yul\":3705:3706   */\n      0x01\n        /* \"#utility.yul\":3698:3703   */\n      dup3\n        /* \"#utility.yul\":3694:3707   */\n      add\n        /* \"#utility.yul\":3687:3707   */\n      swap1\n      pop\n        /* \"#utility.yul\":3480:3713   */\n      swap2\n      swap1\n      pop\n      jump\t// out\n        /* \"#utility.yul\":3719:4051   */\n    tag_77:\n        /* \"#utility.yul\":3840:3844   */\n      0x00\n        /* \"#utility.yul\":3878:3880   */\n      0x40\n        /* \"#utility.yul\":3867:3876   */\n      dup3\n        /* \"#utility.yul\":3863:3881   */\n      add\n        /* \"#utility.yul\":3855:3881   */\n      swap1\n      pop\n        /* \"#utility.yul\":3891:3962   */\n      tag_170\n        /* \"#utility.yul\":3959:3960   */\n      0x00\n        /* \"#utility.yul\":3948:3957   */\n      dup4\n        /* \"#utility.yul\":3944:3961   */\n      add\n        /* \"#utility.yul\":3935:3941   */\n      dup6\n        /* \"#utility.yul\":3891:3962   */\n      tag_101\n      jump\t// in\n    tag_170:\n        /* \"#utility.yul\":3972:4044   */\n      tag_171\n        /* \"#utility.yul\":4040:4042   */\n      0x20\n        /* \"#utility.yul\":4029:4038   */\n      dup4\n        /* \"#utility.yul\":4025:4043   */\n      add\n        /* \"#utility.yul\":4016:4022   */\n      dup5\n        /* \"#utility.yul\":3972:4044   */\n      tag_101\n      jump\t// in\n    tag_171:\n        /* \"#utility.yul\":3719:4051   */\n      swap4\n      swap3\n      pop\n      pop\n      pop\n      jump\t// out\n        /* \"#utility.yul\":4057:4248   */\n    tag_84:\n        /* \"#utility.yul\":4097:4100   */\n      0x00\n        /* \"#utility.yul\":4116:4136   */\n      tag_173\n        /* \"#utility.yul\":4134:4135   */\n      dup3\n        /* \"#utility.yul\":4116:4136   */\n      tag_100\n      jump\t// in\n    tag_173:\n        /* \"#utility.yul\":4111:4136   */\n      swap2\n      pop\n        /* \"#utility.yul\":4150:4170   */\n      tag_174\n        /* \"#utility.yul\":4168:4169   */\n      dup4\n        /* \"#utility.yul\":4150:4170   */\n      tag_100\n      jump\t// in\n    tag_174:\n        /* \"#utility.yul\":4145:4170   */\n      swap3\n      pop\n        /* \"#utility.yul\":4193:4194   */\n      dup3\n        /* \"#utility.yul\":4190:4191   */\n      dup3\n        /* \"#utility.yul\":4186:4195   */\n      add\n        /* \"#utility.yul\":4179:4195   */\n      swap1\n      pop\n        /* \"#utility.yul\":4214:4217   */\n      dup1\n        /* \"#utility.yul\":4211:4212   */\n      dup3\n        /* \"#utility.yul\":4208:4218   */\n      gt\n        /* \"#utility.yul\":4205:4241   */\n      iszero\n      tag_175\n      jumpi\n        /* \"#utility.yul\":4221:4239   */\n      tag_176\n      tag_113\n      jump\t// in\n    tag_176:\n        /* \"#utility.yul\":4205:4241   */\n    tag_175:\n        /* \"#utility.yul\":4057:4248   */\n      swap3\n      swap2\n      pop\n      pop\n      jump\t// out\n        /* \"#utility.yul\":4254:4401   */\n    tag_114:\n        /* \"#utility.yul\":4355:4366   */\n      0x00\n        /* \"#utility.yul\":4392:4395   */\n      dup2\n        /* \"#utility.yul\":4377:4395   */\n      swap1\n      pop\n        /* \"#utility.yul\":4254:4401   */\n      swap3\n      swap2\n      pop\n      pop\n      jump\t// out\n        /* \"#utility.yul\":4407:4521   */\n    tag_115:\n      pop\n      jump\t// out\n        /* \"#utility.yul\":4527:4925   */\n    tag_116:\n        /* \"#utility.yul\":4686:4689   */\n      0x00\n        /* \"#utility.yul\":4707:4790   */\n      tag_180\n        /* \"#utility.yul\":4788:4789   */\n      0x00\n        /* \"#utility.yul\":4783:4786   */\n      dup4\n        /* \"#utility.yul\":4707:4790   */\n      tag_114\n      jump\t// in\n    tag_180:\n        /* \"#utility.yul\":4700:4790   */\n      swap2\n      pop\n        /* \"#utility.yul\":4799:4892   */\n      tag_181\n        /* \"#utility.yul\":4888:4891   */\n      dup3\n        /* \"#utility.yul\":4799:4892   */\n      tag_115\n      jump\t// in\n    tag_181:\n        /* \"#utility.yul\":4917:4918   */\n      0x00\n        /* \"#utility.yul\":4912:4915   */\n      dup3\n        /* \"#utility.yul\":4908:4919   */\n      add\n        /* \"#utility.yul\":4901:4919   */\n      swap1\n      pop\n        /* \"#utility.yul\":4527:4925   */\n      swap2\n      swap1\n      pop\n      jump\t// out\n        /* \"#utility.yul\":4931:5310   */\n    tag_93:\n        /* \"#utility.yul\":5115:5118   */\n      0x00\n        /* \"#utility.yul\":5137:5284   */\n      tag_183\n        /* \"#utility.yul\":5280:5283   */\n      dup3\n        /* \"#utility.yul\":5137:5284   */\n      tag_116\n      jump\t// in\n    tag_183:\n        /* \"#utility.yul\":5130:5284   */\n      swap2\n      pop\n        /* \"#utility.yul\":5301:5304   */\n      dup2\n        /* \"#utility.yul\":5294:5304   */\n      swap1\n      pop\n        /* \"#utility.yul\":4931:5310   */\n      swap2\n      swap1\n      pop\n      jump\t// out\n        /* \"#utility.yul\":5316:5485   */\n    tag_117:\n        /* \"#utility.yul\":5400:5411   */\n      0x00\n        /* \"#utility.yul\":5434:5440   */\n      dup3\n        /* \"#utility.yul\":5429:5432   */\n      dup3\n        /* \"#utility.yul\":5422:5441   */\n      mstore\n        /* \"#utility.yul\":5474:5478   */\n      0x20\n        /* \"#utility.yul\":5469:5472   */\n      dup3\n        /* \"#utility.yul\":5465:5479   */\n      add\n        /* \"#utility.yul\":5450:5479   */\n      swap1\n      pop\n        /* \"#utility.yul\":5316:5485   */\n      swap3\n      swap2\n      pop\n      pop\n      jump\t// out\n        /* \"#utility.yul\":5491:5656   */\n    tag_118:\n        /* \"#utility.yul\":5631:5648   */\n      0x5472616e73666572206661696c65640000000000000000000000000000000000\n        /* \"#utility.yul\":5627:5628   */\n      0x00\n        /* \"#utility.yul\":5619:5625   */\n      dup3\n        /* \"#utility.yul\":5615:5629   */\n      add\n        /* \"#utility.yul\":5608:5649   */\n      mstore\n        /* \"#utility.yul\":5491:5656   */\n      pop\n      jump\t// out\n        /* \"#utility.yul\":5662:6028   */\n    tag_119:\n        /* \"#utility.yul\":5804:5807   */\n      0x00\n        /* \"#utility.yul\":5825:5892   */\n      tag_187\n        /* \"#utility.yul\":5889:5891   */\n      0x0f\n        /* \"#utility.yul\":5884:5887   */\n      dup4\n        /* \"#utility.yul\":5825:5892   */\n      tag_117\n      jump\t// in\n    tag_187:\n        /* \"#utility.yul\":5818:5892   */\n      swap2\n      pop\n        /* \"#utility.yul\":5901:5994   */\n      tag_188\n        /* \"#utility.yul\":5990:5993   */\n      dup3\n        /* \"#utility.yul\":5901:5994   */\n      tag_118\n      jump\t// in\n    tag_188:\n        /* \"#utility.yul\":6019:6021   */\n      0x20\n        /* \"#utility.yul\":6014:6017   */\n      dup3\n        /* \"#utility.yul\":6010:6022   */\n      add\n        /* \"#utility.yul\":6003:6022   */\n      swap1\n      pop\n        /* \"#utility.yul\":5662:6028   */\n      swap2\n      swap1\n      pop\n      jump\t// out\n        /* \"#utility.yul\":6034:6453   */\n    tag_99:\n        /* \"#utility.yul\":6200:6204   */\n      0x00\n        /* \"#utility.yul\":6238:6240   */\n      0x20\n        /* \"#utility.yul\":6227:6236   */\n      dup3\n        /* \"#utility.yul\":6223:6241   */\n      add\n        /* \"#utility.yul\":6215:6241   */\n      swap1\n      pop\n        /* \"#utility.yul\":6287:6296   */\n      dup2\n        /* \"#utility.yul\":6281:6285   */\n      dup2\n        /* \"#utility.yul\":6277:6297   */\n      sub\n        /* \"#utility.yul\":6273:6274   */\n      0x00\n        /* \"#utility.yul\":6262:6271   */\n      dup4\n        /* \"#utility.yul\":6258:6275   */\n      add\n        /* \"#utility.yul\":6251:6298   */\n      mstore\n        /* \"#utility.yul\":6315:6446   */\n      tag_190\n        /* \"#utility.yul\":6441:6445   */\n      dup2\n        /* \"#utility.yul\":6315:6446   */\n      tag_119\n      jump\t// in\n    tag_190:\n        /* \"#utility.yul\":6307:6446   */\n      swap1\n      pop\n        /* \"#utility.yul\":6034:6453   */\n      swap2\n      swap1\n      pop\n      jump\t// out\n\n    auxdata: 0xa2646970667358221220e0014784a4507a6a54a111599e02c0b90ee2590e47370e6c009ebf9d58e6f66f64736f6c634300081e0033\n}\n",
				"bytecode": {
					"linkReferences": {},
					"object": "60c060405234801561000f575f5ffd5b50604051610bde380380610bde8339818101604052810190610031919061007f565b81608081815250508060a0818152505050506100bd565b5f5ffd5b5f819050919050565b61005e8161004c565b8114610068575f5ffd5b50565b5f8151905061007981610055565b92915050565b5f5f6040838503121561009557610094610048565b5b5f6100a28582860161006b565b92505060206100b38582860161006b565b9150509250929050565b60805160a051610aeb6100f35f395f8181610285015261053501525f81816102fe015281816104af015261066f0152610aeb5ff3fe60806040526004361061009b575f3560e01c806371706cbe1161006357806371706cbe14610193578063ad7a672f146101bd578063c6e8e38c146101e7578063d0e30db014610213578063e28879ee1461021d578063f8b2cb4f146102475761009b565b80630dbad9531461009f57806327e235e3146100c95780632dfdf0b5146101055780632e1a7d4d1461012f5780634e8ecafb14610157575b5f5ffd5b3480156100aa575f5ffd5b506100b3610283565b6040516100c0919061079c565b60405180910390f35b3480156100d4575f5ffd5b506100ef60048036038101906100ea9190610813565b6102a7565b6040516100fc919061079c565b60405180910390f35b348015610110575f5ffd5b506101196102bc565b604051610126919061079c565b60405180910390f35b34801561013a575f5ffd5b5061015560048036038101906101509190610868565b6102c2565b005b348015610162575f5ffd5b5061017d60048036038101906101789190610868565b6104ac565b60405161018a91906108ad565b60405180910390f35b34801561019e575f5ffd5b506101a76104d8565b6040516101b4919061079c565b60405180910390f35b3480156101c8575f5ffd5b506101d16104de565b6040516101de919061079c565b60405180910390f35b3480156101f2575f5ffd5b506101fb6104e3565b60405161020a939291906108c6565b60405180910390f35b61021b6104f9565b005b348015610228575f5ffd5b5061023161066d565b60405161023e919061079c565b60405180910390f35b348015610252575f5ffd5b5061026d60048036038101906102689190610813565b610691565b60405161027a919061079c565b60405180910390f35b7f000000000000000000000000000000000000000000000000000000000000000081565b6003602052805f5260405f205f915090505481565b60015481565b805f81036102fc576040517f1f2a200500000000000000000000000000000000000000000000000000000000815260040160405180910390fd5b7f0000000000000000000000000000000000000000000000000000000000000000821115610356576040517f55d574cb00000000000000000000000000000000000000000000000000000000815260040160405180910390fd5b8160035f3373ffffffffffffffffffffffffffffffffffffffff1673ffffffffffffffffffffffffffffffffffffffff1681526020019081526020015f205410156103cd576040517ff4d678b800000000000000000000000000000000000000000000000000000000815260040160405180910390fd5b8160035f3373ffffffffffffffffffffffffffffffffffffffff1673ffffffffffffffffffffffffffffffffffffffff1681526020019081526020015f205f8282546104199190610928565b92505081905550815f5f8282546104309190610928565b9250508190555060025f8154809291906104499061095b565b919050555061045833836106d7565b3373ffffffffffffffffffffffffffffffffffffffff167f92ccf450a286a957af52509bc1c9939d1a6a481783e142e41e2499f0bb66ebc683426040516104a09291906109a2565b60405180910390a25050565b5f7f00000000000000000000000000000000000000000000000000000000000000008211159050919050565b60025481565b5f5481565b5f5f5f6001546002545f54925092509250909192565b345f8103610533576040517f1f2a200500000000000000000000000000000000000000000000000000000000815260040160405180910390fd5b7f0000000000000000000000000000000000000000000000000000000000000000345f5461056191906109c9565b1115610599576040517fb5d6cf7a00000000000000000000000000000000000000000000000000000000815260040160405180910390fd5b3460035f3373ffffffffffffffffffffffffffffffffffffffff1673ffffffffffffffffffffffffffffffffffffffff1681526020019081526020015f205f8282546105e591906109c9565b92505081905550345f5f8282546105fc91906109c9565b9250508190555060015f8154809291906106159061095b565b91905055503373ffffffffffffffffffffffffffffffffffffffff167f73a19dd210f1a7f902193214c0ee91dd35ee5b4d920cba8d519eca65a7b488ca34426040516106629291906109a2565b60405180910390a250565b7f000000000000000000000000000000000000000000000000000000000000000081565b5f60035f8373ffffffffffffffffffffffffffffffffffffffff1673ffffffffffffffffffffffffffffffffffffffff1681526020019081526020015f20549050919050565b5f8273ffffffffffffffffffffffffffffffffffffffff16826040516106fc90610a29565b5f6040518083038185875af1925050503d805f8114610736576040519150601f19603f3d011682016040523d82523d5f602084013e61073b565b606091505b505090508061077f576040517f08c379a000000000000000000000000000000000000000000000000000000000815260040161077690610a97565b60405180910390fd5b505050565b5f819050919050565b61079681610784565b82525050565b5f6020820190506107af5f83018461078d565b92915050565b5f5ffd5b5f73ffffffffffffffffffffffffffffffffffffffff82169050919050565b5f6107e2826107b9565b9050919050565b6107f2816107d8565b81146107fc575f5ffd5b50565b5f8135905061080d816107e9565b92915050565b5f60208284031215610828576108276107b5565b5b5f610835848285016107ff565b91505092915050565b61084781610784565b8114610851575f5ffd5b50565b5f813590506108628161083e565b92915050565b5f6020828403121561087d5761087c6107b5565b5b5f61088a84828501610854565b91505092915050565b5f8115159050919050565b6108a781610893565b82525050565b5f6020820190506108c05f83018461089e565b92915050565b5f6060820190506108d95f83018661078d565b6108e6602083018561078d565b6108f3604083018461078d565b949350505050565b7f4e487b71000000000000000000000000000000000000000000000000000000005f52601160045260245ffd5b5f61093282610784565b915061093d83610784565b9250828203905081811115610955576109546108fb565b5b92915050565b5f61096582610784565b91507fffffffffffffffffffffffffffffffffffffffffffffffffffffffffffffffff8203610997576109966108fb565b5b600182019050919050565b5f6040820190506109b55f83018561078d565b6109c2602083018461078d565b9392505050565b5f6109d382610784565b91506109de83610784565b92508282019050808211156109f6576109f56108fb565b5b92915050565b5f81905092915050565b50565b5f610a145f836109fc565b9150610a1f82610a06565b5f82019050919050565b5f610a3382610a09565b9150819050919050565b5f82825260208201905092915050565b7f5472616e73666572206661696c656400000000000000000000000000000000005f82015250565b5f610a81600f83610a3d565b9150610a8c82610a4d565b602082019050919050565b5f6020820190508181035f830152610aae81610a75565b905091905056fea2646970667358221220e0014784a4507a6a54a111599e02c0b90ee2590e47370e6c009ebf9d58e6f66f64736f6c634300081e0033",
					"opcodes": "PUSH1 0xC0 PUSH1 0x40 MSTORE CALLVALUE DUP1 ISZERO PUSH2 0xF JUMPI PUSH0 PUSH0 REVERT JUMPDEST POP PUSH1 0x40 MLOAD PUSH2 0xBDE CODESIZE SUB DUP1 PUSH2 0xBDE DUP4 CODECOPY DUP2 DUP2 ADD PUSH1 0x40 MSTORE DUP2 ADD SWAP1 PUSH2 0x31 SWAP2 SWAP1 PUSH2 0x7F JUMP JUMPDEST DUP2 PUSH1 0x80 DUP2 DUP2 MSTORE POP POP DUP1 PUSH1 0xA0 DUP2 DUP2 MSTORE POP POP POP POP PUSH2 0xBD JUMP JUMPDEST PUSH0 PUSH0 REVERT JUMPDEST PUSH0 DUP2 SWAP1 POP SWAP2 SWAP1 POP JUMP JUMPDEST PUSH2 0x5E DUP2 PUSH2 0x4C JUMP JUMPDEST DUP2 EQ PUSH2 0x68 JUMPI PUSH0 PUSH0 REVERT JUMPDEST POP JUMP JUMPDEST PUSH0 DUP2 MLOAD SWAP1 POP PUSH2 0x79 DUP2 PUSH2 0x55 JUMP JUMPDEST SWAP3 SWAP2 POP POP JUMP JUMPDEST PUSH0 PUSH0 PUSH1 0x40 DUP4 DUP6 SUB SLT ISZERO PUSH2 0x95 JUMPI PUSH2 0x94 PUSH2 0x48 JUMP JUMPDEST JUMPDEST PUSH0 PUSH2 0xA2 DUP6 DUP3 DUP7 ADD PUSH2 0x6B JUMP JUMPDEST SWAP3 POP POP PUSH1 0x20 PUSH2 0xB3 DUP6 DUP3 DUP7 ADD PUSH2 0x6B JUMP JUMPDEST SWAP2 POP POP SWAP3 POP SWAP3 SWAP1 POP JUMP JUMPDEST PUSH1 0x80 MLOAD PUSH1 0xA0 MLOAD PUSH2 0xAEB PUSH2 0xF3 PUSH0 CODECOPY PUSH0 DUP2 DUP2 PUSH2 0x285 ADD MSTORE PUSH2 0x535 ADD MSTORE PUSH0 DUP2 DUP2 PUSH2 0x2FE ADD MSTORE DUP2 DUP2 PUSH2 0x4AF ADD MSTORE PUSH2 0x66F ADD MSTORE PUSH2 0xAEB PUSH0 RETURN INVALID PUSH1 0x80 PUSH1 0x40 MSTORE PUSH1 0x4 CALLDATASIZE LT PUSH2 0x9B JUMPI PUSH0 CALLDATALOAD PUSH1 0xE0 SHR DUP1 PUSH4 0x71706CBE GT PUSH2 0x63 JUMPI DUP1 PUSH4 0x71706CBE EQ PUSH2 0x193 JUMPI DUP1 PUSH4 0xAD7A672F EQ PUSH2 0x1BD JUMPI DUP1 PUSH4 0xC6E8E38C EQ PUSH2 0x1E7 JUMPI DUP1 PUSH4 0xD0E30DB0 EQ PUSH2 0x213 JUMPI DUP1 PUSH4 0xE28879EE EQ PUSH2 0x21D JUMPI DUP1 PUSH4 0xF8B2CB4F EQ PUSH2 0x247 JUMPI PUSH2 0x9B JUMP JUMPDEST DUP1 PUSH4 0xDBAD953 EQ PUSH2 0x9F JUMPI DUP1 PUSH4 0x27E235E3 EQ PUSH2 0xC9 JUMPI DUP1 PUSH4 0x2DFDF0B5 EQ PUSH2 0x105 JUMPI DUP1 PUSH4 0x2E1A7D4D EQ PUSH2 0x12F JUMPI DUP1 PUSH4 0x4E8ECAFB EQ PUSH2 0x157 JUMPI JUMPDEST PUSH0 PUSH0 REVERT JUMPDEST CALLVALUE DUP1 ISZERO PUSH2 0xAA JUMPI PUSH0 PUSH0 REVERT JUMPDEST POP PUSH2 0xB3 PUSH2 0x283 JUMP JUMPDEST PUSH1 0x40 MLOAD PUSH2 0xC0 SWAP2 SWAP1 PUSH2 0x79C JUMP JUMPDEST PUSH1 0x40 MLOAD DUP1 SWAP2 SUB SWAP1 RETURN JUMPDEST CALLVALUE DUP1 ISZERO PUSH2 0xD4 JUMPI PUSH0 PUSH0 REVERT JUMPDEST POP PUSH2 0xEF PUSH1 0x4 DUP1 CALLDATASIZE SUB DUP2 ADD SWAP1 PUSH2 0xEA SWAP2 SWAP1 PUSH2 0x813 JUMP JUMPDEST PUSH2 0x2A7 JUMP JUMPDEST PUSH1 0x40 MLOAD PUSH2 0xFC SWAP2 SWAP1 PUSH2 0x79C JUMP JUMPDEST PUSH1 0x40 MLOAD DUP1 SWAP2 SUB SWAP1 RETURN JUMPDEST CALLVALUE DUP1 ISZERO PUSH2 0x110 JUMPI PUSH0 PUSH0 REVERT JUMPDEST POP PUSH2 0x119 PUSH2 0x2BC JUMP JUMPDEST PUSH1 0x40 MLOAD PUSH2 0x126 SWAP2 SWAP1 PUSH2 0x79C JUMP JUMPDEST PUSH1 0x40 MLOAD DUP1 SWAP2 SUB SWAP1 RETURN JUMPDEST CALLVALUE DUP1 ISZERO PUSH2 0x13A JUMPI PUSH0 PUSH0 REVERT JUMPDEST POP PUSH2 0x155 PUSH1 0x4 DUP1 CALLDATASIZE SUB DUP2 ADD SWAP1 PUSH2 0x150 SWAP2 SWAP1 PUSH2 0x868 JUMP JUMPDEST PUSH2 0x2C2 JUMP JUMPDEST STOP JUMPDEST CALLVALUE DUP1 ISZERO PUSH2 0x162 JUMPI PUSH0 PUSH0 REVERT JUMPDEST POP PUSH2 0x17D PUSH1 0x4 DUP1 CALLDATASIZE SUB DUP2 ADD SWAP1 PUSH2 0x178 SWAP2 SWAP1 PUSH2 0x868 JUMP JUMPDEST PUSH2 0x4AC JUMP JUMPDEST PUSH1 0x40 MLOAD PUSH2 0x18A SWAP2 SWAP1 PUSH2 0x8AD JUMP JUMPDEST PUSH1 0x40 MLOAD DUP1 SWAP2 SUB SWAP1 RETURN JUMPDEST CALLVALUE DUP1 ISZERO PUSH2 0x19E JUMPI PUSH0 PUSH0 REVERT JUMPDEST POP PUSH2 0x1A7 PUSH2 0x4D8 JUMP JUMPDEST PUSH1 0x40 MLOAD PUSH2 0x1B4 SWAP2 SWAP1 PUSH2 0x79C JUMP JUMPDEST PUSH1 0x40 MLOAD DUP1 SWAP2 SUB SWAP1 RETURN JUMPDEST CALLVALUE DUP1 ISZERO PUSH2 0x1C8 JUMPI PUSH0 PUSH0 REVERT JUMPDEST POP PUSH2 0x1D1 PUSH2 0x4DE JUMP JUMPDEST PUSH1 0x40 MLOAD PUSH2 0x1DE SWAP2 SWAP1 PUSH2 0x79C JUMP JUMPDEST PUSH1 0x40 MLOAD DUP1 SWAP2 SUB SWAP1 RETURN JUMPDEST CALLVALUE DUP1 ISZERO PUSH2 0x1F2 JUMPI PUSH0 PUSH0 REVERT JUMPDEST POP PUSH2 0x1FB PUSH2 0x4E3 JUMP JUMPDEST PUSH1 0x40 MLOAD PUSH2 0x20A SWAP4 SWAP3 SWAP2 SWAP1 PUSH2 0x8C6 JUMP JUMPDEST PUSH1 0x40 MLOAD DUP1 SWAP2 SUB SWAP1 RETURN JUMPDEST PUSH2 0x21B PUSH2 0x4F9 JUMP JUMPDEST STOP JUMPDEST CALLVALUE DUP1 ISZERO PUSH2 0x228 JUMPI PUSH0 PUSH0 REVERT JUMPDEST POP PUSH2 0x231 PUSH2 0x66D JUMP JUMPDEST PUSH1 0x40 MLOAD PUSH2 0x23E SWAP2 SWAP1 PUSH2 0x79C JUMP JUMPDEST PUSH1 0x40 MLOAD DUP1 SWAP2 SUB SWAP1 RETURN JUMPDEST CALLVALUE DUP1 ISZERO PUSH2 0x252 JUMPI PUSH0 PUSH0 REVERT JUMPDEST POP PUSH2 0x26D PUSH1 0x4 DUP1 CALLDATASIZE SUB DUP2 ADD SWAP1 PUSH2 0x268 SWAP2 SWAP1 PUSH2 0x813 JUMP JUMPDEST PUSH2 0x691 JUMP JUMPDEST PUSH1 0x40 MLOAD PUSH2 0x27A SWAP2 SWAP1 PUSH2 0x79C JUMP JUMPDEST PUSH1 0x40 MLOAD DUP1 SWAP2 SUB SWAP1 RETURN JUMPDEST PUSH32 0x0 DUP2 JUMP JUMPDEST PUSH1 0x3 PUSH1 0x20 MSTORE DUP1 PUSH0 MSTORE PUSH1 0x40 PUSH0 KECCAK256 PUSH0 SWAP2 POP SWAP1 POP SLOAD DUP2 JUMP JUMPDEST PUSH1 0x1 SLOAD DUP2 JUMP JUMPDEST DUP1 PUSH0 DUP2 SUB PUSH2 0x2FC JUMPI PUSH1 0x40 MLOAD PUSH32 0x1F2A200500000000000000000000000000000000000000000000000000000000 DUP2 MSTORE PUSH1 0x4 ADD PUSH1 0x40 MLOAD DUP1 SWAP2 SUB SWAP1 REVERT JUMPDEST PUSH32 0x0 DUP3 GT ISZERO PUSH2 0x356 JUMPI PUSH1 0x40 MLOAD PUSH32 0x55D574CB00000000000000000000000000000000000000000000000000000000 DUP2 MSTORE PUSH1 0x4 ADD PUSH1 0x40 MLOAD DUP1 SWAP2 SUB SWAP1 REVERT JUMPDEST DUP2 PUSH1 0x3 PUSH0 CALLER PUSH20 0xFFFFFFFFFFFFFFFFFFFFFFFFFFFFFFFFFFFFFFFF AND PUSH20 0xFFFFFFFFFFFFFFFFFFFFFFFFFFFFFFFFFFFFFFFF AND DUP2 MSTORE PUSH1 0x20 ADD SWAP1 DUP2 MSTORE PUSH1 0x20 ADD PUSH0 KECCAK256 SLOAD LT ISZERO PUSH2 0x3CD JUMPI PUSH1 0x40 MLOAD PUSH32 0xF4D678B800000000000000000000000000000000000000000000000000000000 DUP2 MSTORE PUSH1 0x4 ADD PUSH1 0x40 MLOAD DUP1 SWAP2 SUB SWAP1 REVERT JUMPDEST DUP2 PUSH1 0x3 PUSH0 CALLER PUSH20 0xFFFFFFFFFFFFFFFFFFFFFFFFFFFFFFFFFFFFFFFF AND PUSH20 0xFFFFFFFFFFFFFFFFFFFFFFFFFFFFFFFFFFFFFFFF AND DUP2 MSTORE PUSH1 0x20 ADD SWAP1 DUP2 MSTORE PUSH1 0x20 ADD PUSH0 KECCAK256 PUSH0 DUP3 DUP3 SLOAD PUSH2 0x419 SWAP2 SWAP1 PUSH2 0x928 JUMP JUMPDEST SWAP3 POP POP DUP2 SWAP1 SSTORE POP DUP2 PUSH0 PUSH0 DUP3 DUP3 SLOAD PUSH2 0x430 SWAP2 SWAP1 PUSH2 0x928 JUMP JUMPDEST SWAP3 POP POP DUP2 SWAP1 SSTORE POP PUSH1 0x2 PUSH0 DUP2 SLOAD DUP1 SWAP3 SWAP2 SWAP1 PUSH2 0x449 SWAP1 PUSH2 0x95B JUMP JUMPDEST SWAP2 SWAP1 POP SSTORE POP PUSH2 0x458 CALLER DUP4 PUSH2 0x6D7 JUMP JUMPDEST CALLER PUSH20 0xFFFFFFFFFFFFFFFFFFFFFFFFFFFFFFFFFFFFFFFF AND PUSH32 0x92CCF450A286A957AF52509BC1C9939D1A6A481783E142E41E2499F0BB66EBC6 DUP4 TIMESTAMP PUSH1 0x40 MLOAD PUSH2 0x4A0 SWAP3 SWAP2 SWAP1 PUSH2 0x9A2 JUMP JUMPDEST PUSH1 0x40 MLOAD DUP1 SWAP2 SUB SWAP1 LOG2 POP POP JUMP JUMPDEST PUSH0 PUSH32 0x0 DUP3 GT ISZERO SWAP1 POP SWAP2 SWAP1 POP JUMP JUMPDEST PUSH1 0x2 SLOAD DUP2 JUMP JUMPDEST PUSH0 SLOAD DUP2 JUMP JUMPDEST PUSH0 PUSH0 PUSH0 PUSH1 0x1 SLOAD PUSH1 0x2 SLOAD PUSH0 SLOAD SWAP3 POP SWAP3 POP SWAP3 POP SWAP1 SWAP2 SWAP3 JUMP JUMPDEST CALLVALUE PUSH0 DUP2 SUB PUSH2 0x533 JUMPI PUSH1 0x40 MLOAD PUSH32 0x1F2A200500000000000000000000000000000000000000000000000000000000 DUP2 MSTORE PUSH1 0x4 ADD PUSH1 0x40 MLOAD DUP1 SWAP2 SUB SWAP1 REVERT JUMPDEST PUSH32 0x0 CALLVALUE PUSH0 SLOAD PUSH2 0x561 SWAP2 SWAP1 PUSH2 0x9C9 JUMP JUMPDEST GT ISZERO PUSH2 0x599 JUMPI PUSH1 0x40 MLOAD PUSH32 0xB5D6CF7A00000000000000000000000000000000000000000000000000000000 DUP2 MSTORE PUSH1 0x4 ADD PUSH1 0x40 MLOAD DUP1 SWAP2 SUB SWAP1 REVERT JUMPDEST CALLVALUE PUSH1 0x3 PUSH0 CALLER PUSH20 0xFFFFFFFFFFFFFFFFFFFFFFFFFFFFFFFFFFFFFFFF AND PUSH20 0xFFFFFFFFFFFFFFFFFFFFFFFFFFFFFFFFFFFFFFFF AND DUP2 MSTORE PUSH1 0x20 ADD SWAP1 DUP2 MSTORE PUSH1 0x20 ADD PUSH0 KECCAK256 PUSH0 DUP3 DUP3 SLOAD PUSH2 0x5E5 SWAP2 SWAP1 PUSH2 0x9C9 JUMP JUMPDEST SWAP3 POP POP DUP2 SWAP1 SSTORE POP CALLVALUE PUSH0 PUSH0 DUP3 DUP3 SLOAD PUSH2 0x5FC SWAP2 SWAP1 PUSH2 0x9C9 JUMP JUMPDEST SWAP3 POP POP DUP2 SWAP1 SSTORE POP PUSH1 0x1 PUSH0 DUP2 SLOAD DUP1 SWAP3 SWAP2 SWAP1 PUSH2 0x615 SWAP1 PUSH2 0x95B JUMP JUMPDEST SWAP2 SWAP1 POP SSTORE POP CALLER PUSH20 0xFFFFFFFFFFFFFFFFFFFFFFFFFFFFFFFFFFFFFFFF AND PUSH32 0x73A19DD210F1A7F902193214C0EE91DD35EE5B4D920CBA8D519ECA65A7B488CA CALLVALUE TIMESTAMP PUSH1 0x40 MLOAD PUSH2 0x662 SWAP3 SWAP2 SWAP1 PUSH2 0x9A2 JUMP JUMPDEST PUSH1 0x40 MLOAD DUP1 SWAP2 SUB SWAP1 LOG2 POP JUMP JUMPDEST PUSH32 0x0 DUP2 JUMP JUMPDEST PUSH0 PUSH1 0x3 PUSH0 DUP4 PUSH20 0xFFFFFFFFFFFFFFFFFFFFFFFFFFFFFFFFFFFFFFFF AND PUSH20 0xFFFFFFFFFFFFFFFFFFFFFFFFFFFFFFFFFFFFFFFF AND DUP2 MSTORE PUSH1 0x20 ADD SWAP1 DUP2 MSTORE PUSH1 0x20 ADD PUSH0 KECCAK256 SLOAD SWAP1 POP SWAP2 SWAP1 POP JUMP JUMPDEST PUSH0 DUP3 PUSH20 0xFFFFFFFFFFFFFFFFFFFFFFFFFFFFFFFFFFFFFFFF AND DUP3 PUSH1 0x40 MLOAD PUSH2 0x6FC SWAP1 PUSH2 0xA29 JUMP JUMPDEST PUSH0 PUSH1 0x40 MLOAD DUP1 DUP4 SUB DUP2 DUP6 DUP8 GAS CALL SWAP3 POP POP POP RETURNDATASIZE DUP1 PUSH0 DUP2 EQ PUSH2 0x736 JUMPI PUSH1 0x40 MLOAD SWAP2 POP PUSH1 0x1F NOT PUSH1 0x3F RETURNDATASIZE ADD AND DUP3 ADD PUSH1 0x40 MSTORE RETURNDATASIZE DUP3 MSTORE RETURNDATASIZE PUSH0 PUSH1 0x20 DUP5 ADD RETURNDATACOPY PUSH2 0x73B JUMP JUMPDEST PUSH1 0x60 SWAP2 POP JUMPDEST POP POP SWAP1 POP DUP1 PUSH2 0x77F JUMPI PUSH1 0x40 MLOAD PUSH32 0x8C379A000000000000000000000000000000000000000000000000000000000 DUP2 MSTORE PUSH1 0x4 ADD PUSH2 0x776 SWAP1 PUSH2 0xA97 JUMP JUMPDEST PUSH1 0x40 MLOAD DUP1 SWAP2 SUB SWAP1 REVERT JUMPDEST POP POP POP JUMP JUMPDEST PUSH0 DUP2 SWAP1 POP SWAP2 SWAP1 POP JUMP JUMPDEST PUSH2 0x796 DUP2 PUSH2 0x784 JUMP JUMPDEST DUP3 MSTORE POP POP JUMP JUMPDEST PUSH0 PUSH1 0x20 DUP3 ADD SWAP1 POP PUSH2 0x7AF PUSH0 DUP4 ADD DUP5 PUSH2 0x78D JUMP JUMPDEST SWAP3 SWAP2 POP POP JUMP JUMPDEST PUSH0 PUSH0 REVERT JUMPDEST PUSH0 PUSH20 0xFFFFFFFFFFFFFFFFFFFFFFFFFFFFFFFFFFFFFFFF DUP3 AND SWAP1 POP SWAP2 SWAP1 POP JUMP JUMPDEST PUSH0 PUSH2 0x7E2 DUP3 PUSH2 0x7B9 JUMP JUMPDEST SWAP1 POP SWAP2 SWAP1 POP JUMP JUMPDEST PUSH2 0x7F2 DUP2 PUSH2 0x7D8 JUMP JUMPDEST DUP2 EQ PUSH2 0x7FC JUMPI PUSH0 PUSH0 REVERT JUMPDEST POP JUMP JUMPDEST PUSH0 DUP2 CALLDATALOAD SWAP1 POP PUSH2 0x80D DUP2 PUSH2 0x7E9 JUMP JUMPDEST SWAP3 SWAP2 POP POP JUMP JUMPDEST PUSH0 PUSH1 0x20 DUP3 DUP5 SUB SLT ISZERO PUSH2 0x828 JUMPI PUSH2 0x827 PUSH2 0x7B5 JUMP JUMPDEST JUMPDEST PUSH0 PUSH2 0x835 DUP5 DUP3 DUP6 ADD PUSH2 0x7FF JUMP JUMPDEST SWAP2 POP POP SWAP3 SWAP2 POP POP JUMP JUMPDEST PUSH2 0x847 DUP2 PUSH2 0x784 JUMP JUMPDEST DUP2 EQ PUSH2 0x851 JUMPI PUSH0 PUSH0 REVERT JUMPDEST POP JUMP JUMPDEST PUSH0 DUP2 CALLDATALOAD SWAP1 POP PUSH2 0x862 DUP2 PUSH2 0x83E JUMP JUMPDEST SWAP3 SWAP2 POP POP JUMP JUMPDEST PUSH0 PUSH1 0x20 DUP3 DUP5 SUB SLT ISZERO PUSH2 0x87D JUMPI PUSH2 0x87C PUSH2 0x7B5 JUMP JUMPDEST JUMPDEST PUSH0 PUSH2 0x88A DUP5 DUP3 DUP6 ADD PUSH2 0x854 JUMP JUMPDEST SWAP2 POP POP SWAP3 SWAP2 POP POP JUMP JUMPDEST PUSH0 DUP2 ISZERO ISZERO SWAP1 POP SWAP2 SWAP1 POP JUMP JUMPDEST PUSH2 0x8A7 DUP2 PUSH2 0x893 JUMP JUMPDEST DUP3 MSTORE POP POP JUMP JUMPDEST PUSH0 PUSH1 0x20 DUP3 ADD SWAP1 POP PUSH2 0x8C0 PUSH0 DUP4 ADD DUP5 PUSH2 0x89E JUMP JUMPDEST SWAP3 SWAP2 POP POP JUMP JUMPDEST PUSH0 PUSH1 0x60 DUP3 ADD SWAP1 POP PUSH2 0x8D9 PUSH0 DUP4 ADD DUP7 PUSH2 0x78D JUMP JUMPDEST PUSH2 0x8E6 PUSH1 0x20 DUP4 ADD DUP6 PUSH2 0x78D JUMP JUMPDEST PUSH2 0x8F3 PUSH1 0x40 DUP4 ADD DUP5 PUSH2 0x78D JUMP JUMPDEST SWAP5 SWAP4 POP POP POP POP JUMP JUMPDEST PUSH32 0x4E487B7100000000000000000000000000000000000000000000000000000000 PUSH0 MSTORE PUSH1 0x11 PUSH1 0x4 MSTORE PUSH1 0x24 PUSH0 REVERT JUMPDEST PUSH0 PUSH2 0x932 DUP3 PUSH2 0x784 JUMP JUMPDEST SWAP2 POP PUSH2 0x93D DUP4 PUSH2 0x784 JUMP JUMPDEST SWAP3 POP DUP3 DUP3 SUB SWAP1 POP DUP2 DUP2 GT ISZERO PUSH2 0x955 JUMPI PUSH2 0x954 PUSH2 0x8FB JUMP JUMPDEST JUMPDEST SWAP3 SWAP2 POP POP JUMP JUMPDEST PUSH0 PUSH2 0x965 DUP3 PUSH2 0x784 JUMP JUMPDEST SWAP2 POP PUSH32 0xFFFFFFFFFFFFFFFFFFFFFFFFFFFFFFFFFFFFFFFFFFFFFFFFFFFFFFFFFFFFFFFF DUP3 SUB PUSH2 0x997 JUMPI PUSH2 0x996 PUSH2 0x8FB JUMP JUMPDEST JUMPDEST PUSH1 0x1 DUP3 ADD SWAP1 POP SWAP2 SWAP1 POP JUMP JUMPDEST PUSH0 PUSH1 0x40 DUP3 ADD SWAP1 POP PUSH2 0x9B5 PUSH0 DUP4 ADD DUP6 PUSH2 0x78D JUMP JUMPDEST PUSH2 0x9C2 PUSH1 0x20 DUP4 ADD DUP5 PUSH2 0x78D JUMP JUMPDEST SWAP4 SWAP3 POP POP POP JUMP JUMPDEST PUSH0 PUSH2 0x9D3 DUP3 PUSH2 0x784 JUMP JUMPDEST SWAP2 POP PUSH2 0x9DE DUP4 PUSH2 0x784 JUMP JUMPDEST SWAP3 POP DUP3 DUP3 ADD SWAP1 POP DUP1 DUP3 GT ISZERO PUSH2 0x9F6 JUMPI PUSH2 0x9F5 PUSH2 0x8FB JUMP JUMPDEST JUMPDEST SWAP3 SWAP2 POP POP JUMP JUMPDEST PUSH0 DUP2 SWAP1 POP SWAP3 SWAP2 POP POP JUMP JUMPDEST POP JUMP JUMPDEST PUSH0 PUSH2 0xA14 PUSH0 DUP4 PUSH2 0x9FC JUMP JUMPDEST SWAP2 POP PUSH2 0xA1F DUP3 PUSH2 0xA06 JUMP JUMPDEST PUSH0 DUP3 ADD SWAP1 POP SWAP2 SWAP1 POP JUMP JUMPDEST PUSH0 PUSH2 0xA33 DUP3 PUSH2 0xA09 JUMP JUMPDEST SWAP2 POP DUP2 SWAP1 POP SWAP2 SWAP1 POP JUMP JUMPDEST PUSH0 DUP3 DUP3 MSTORE PUSH1 0x20 DUP3 ADD SWAP1 POP SWAP3 SWAP2 POP POP JUMP JUMPDEST PUSH32 0x5472616E73666572206661696C65640000000000000000000000000000000000 PUSH0 DUP3 ADD MSTORE POP JUMP JUMPDEST PUSH0 PUSH2 0xA81 PUSH1 0xF DUP4 PUSH2 0xA3D JUMP JUMPDEST SWAP2 POP PUSH2 0xA8C DUP3 PUSH2 0xA4D JUMP JUMPDEST PUSH1 0x20 DUP3 ADD SWAP1 POP SWAP2 SWAP1 POP JUMP JUMPDEST PUSH0 PUSH1 0x20 DUP3 ADD SWAP1 POP DUP2 DUP2 SUB PUSH0 DUP4 ADD MSTORE PUSH2 0xAAE DUP2 PUSH2 0xA75 JUMP JUMPDEST SWAP1 POP SWAP2 SWAP1 POP JUMP INVALID LOG2 PUSH5 0x6970667358 0x22 SLT KECCAK256 RJUMP 0x147 DUP5 LOG4 POP PUSH27 0x6A54A111599E02C0B90EE2590E47370E6C009EBF9D58E6F66F6473 PUSH16 0x6C634300081E00330000000000000000 "
				},
				"gasEstimates": {
					"creation": {
						"codeDepositCost": "559000",
						"executionCost": "infinite",
						"totalCost": "infinite"
					},
					"external": {
						"BANK_CAP()": "infinite",
						"WITHDRAWAL_THRESHOLD()": "infinite",
						"balances(address)": "2825",
						"deposit()": "infinite",
						"depositCount()": "2470",
						"getBalance(address)": "2939",
						"getBankStats()": "infinite",
						"isWithinWithdrawalLimit(uint256)": "infinite",
						"totalBalance()": "2446",
						"withdraw(uint256)": "infinite",
						"withdrawalCount()": "2425"
					},
					"internal": {
						"_safeTransfer(address,uint256)": "infinite"
					}
				},
				"methodIdentifiers": {
					"BANK_CAP()": "0dbad953",
					"WITHDRAWAL_THRESHOLD()": "e28879ee",
					"balances(address)": "27e235e3",
					"deposit()": "d0e30db0",
					"depositCount()": "2dfdf0b5",
					"getBalance(address)": "f8b2cb4f",
					"getBankStats()": "c6e8e38c",
					"isWithinWithdrawalLimit(uint256)": "4e8ecafb",
					"totalBalance()": "ad7a672f",
					"withdraw(uint256)": "2e1a7d4d",
					"withdrawalCount()": "71706cbe"
				}
			},
			"storageLayout": {
				"storage": [
					{
						"astId": 21,
						"contract": "contracts/kipuBank.sol:KipuBank",
						"label": "totalBalance",
						"offset": 0,
						"slot": "0",
						"type": "t_uint256"
					},
					{
						"astId": 24,
						"contract": "contracts/kipuBank.sol:KipuBank",
						"label": "depositCount",
						"offset": 0,
						"slot": "1",
						"type": "t_uint256"
					},
					{
						"astId": 27,
						"contract": "contracts/kipuBank.sol:KipuBank",
						"label": "withdrawalCount",
						"offset": 0,
						"slot": "2",
						"type": "t_uint256"
					},
					{
						"astId": 32,
						"contract": "contracts/kipuBank.sol:KipuBank",
						"label": "balances",
						"offset": 0,
						"slot": "3",
						"type": "t_mapping(t_address,t_uint256)"
					}
				],
				"types": {
					"t_address": {
						"encoding": "inplace",
						"label": "address",
						"numberOfBytes": "20"
					},
					"t_mapping(t_address,t_uint256)": {
						"encoding": "mapping",
						"key": "t_address",
						"label": "mapping(address => uint256)",
						"numberOfBytes": "32",
						"value": "t_uint256"
					},
					"t_uint256": {
						"encoding": "inplace",
						"label": "uint256",
						"numberOfBytes": "32"
					}
				}
			},
			"userdoc": {
				"events": {
					"Deposited(address,uint256,uint256)": {
						"notice": "Emitted when a user deposits"
					},
					"Withdrawn(address,uint256,uint256)": {
						"notice": "Emitted when a user withdraws"
					}
				},
				"kind": "user",
				"methods": {
					"BANK_CAP()": {
						"notice": "Maximum total deposits in the bank"
					},
					"WITHDRAWAL_THRESHOLD()": {
						"notice": "Maximum withdrawal limit per transaction"
					},
					"balances(address)": {
						"notice": "Balances of each user"
					},
					"constructor": {
						"notice": "Configures bank limits"
					},
					"deposit()": {
						"notice": "Allows users to deposit ETH into their personal vault"
					},
					"depositCount()": {
						"notice": "Deposit counter"
					},
					"getBalance(address)": {
						"notice": "Gets user balance"
					},
					"getBankStats()": {
						"notice": "Gets bank statistics"
					},
					"isWithinWithdrawalLimit(uint256)": {
						"notice": "Verifies if a withdrawal is within the limit"
					},
					"totalBalance()": {
						"notice": "Total contract balance"
					},
					"withdraw(uint256)": {
						"notice": "Allows users to withdraw funds from their vault"
					},
					"withdrawalCount()": {
						"notice": "Withdrawal counter"
					}
				},
				"notice": "Allows users to deposit ETH in personal vaults with withdrawal limits",
				"version": 1
			}
		}
	}
}